:100000000C9420050C9467050C9467050C94670507
:100010000C9467050C9467050C9467050C946705B0
:100020000C9467050C9467050C94B6280C948A29E7
:100030000C94F01F0C9467050C9467050C946705ED
:100040000C9467050C9467050C9467050C94670580
:100050000C9467050C943B200C9467050C94670581
:100060000C9467050C9467050C9467050C94670560
:100070000C9467050C9467050C9467050C94670550
:100080000C9467050C9467050C9467050C94670540
:100090000C9467050C9467050C9467050C94670530
:1000A0000C9467050C9467050C94670529001400EF
:1000B0001A000800150017001C0018000C001200A0
:1000C00013002A002B0004001600070009000A0094
:1000D0000B000D000E000F0000002800E1001D00C5
:1000E0001B00060019000500025111001000360027
:1000F0003700E5000000E000E20000002C000151A4
:1001000000002C4400000351E300000035004A00C9
:1001100052004D004B0049000100010001002F007A
:10012000300001000100500051004F004E004C0013
:100130000100010033003400000001000100010053
:100140000100010001000100010001000100310077
:100150003800010000000100010000000100010062
:1001600000000100000001000100000001003A0051
:100170003B003C003D003E003F004000410042008B
:1001800043000100390046004700480053000100C9
:100190000100010044004500000001000100C35CB3
:1001A000C45CC65CC85CCA5C0100010001000100BF
:1001B000005C0100000001000100000001000100DE
:1001C00000000100000001000100000001001E000D
:1001D0001F0020002100220023002400250026000B
:1001E00027000100010001000100010001000100E1
:1001F000010001002D002E0000000100010001009F
:1002000001000100010001000100010001000100E6
:1002100001000100000001000100000001000100D8
:1002200000000100000001000100000001001E02AA
:100230001F0220022102220223022402250226029A
:10024000270201000100010001000100010001007E
:10025000010001002D022E0200000100010001003A
:100260000100010001000100010001000100010086
:100270000100010000000100010000000100010078
:100280000000010000000100010000000100010069
:100290000100010001000100010001000100010056
:1002A0000100010001000100010001000100010046
:1002B0000100010001000100000001000100010037
:1002C0000100010001000100010001000100010026
:1002D0000100010000000100010000000100010018
:1002E0000000010000000100010000000100010009
:1002F00001000100010001000100010001000100F6
:1003000001000100010001000100010001000100E5
:1003100001000100010001000000010001000100D6
:1003200001000100010001000100010001000100C5
:1003300001000100000001000100000001000100B7
:1003400000000100000001000100000001000100A8
:100350000100010001000100010001000100010095
:100360000100010001000100010001000100010085
:100370000100010001000100000001000100010076
:100380000100010001000100010001000100010065
:100390000100010000000100010000000100010057
:1003A0000000010000000100010000000100010048
:1003B0000100010001000100010001000100010035
:1003C0000100010001000100010001000100010025
:1003D0000100010001000100000001000100010016
:1003E0000100010001000100010001000100010005
:1003F00001000100000001000100000001000100F7
:1004000000000100000001000100000001000100E7
:1004100001000100010001000100010001000100D4
:1004200001000100010001000100010001000100C4
:1004300001000100010001000000010001000100B5
:1004400001000100010001000100010001000100A4
:100450000100010000000100010000000100010096
:100460000000010000000100010000000100010087
:100470000100010001000100010001000100010074
:100480000100010001000100010001000100010064
:100490000100010001000100000001000100010055
:1004A0000100010001000100010001000100010044
:1004B0000100010000000100010000000100010036
:1004C0000000010000000100010000000100010027
:1004D0000100010001000100010001000100010014
:1004E0000100010001000100010001000100010004
:1004F00001000100010001000000010001000100F5
:1005000001000100010001000100010001000100E3
:1005100001000100000001000100000001000100D5
:1005200000000100000001000100000001000100C6
:1005300001000100010001000100010001000100B3
:1005400001000100010001000100010001000100A3
:100550000100010001000100000001000100010094
:100560000100010001000100010001000100010083
:100570000100010000000100010000000100010075
:100580000000010000000100010000000100010066
:100590000100010001000100010001000100010053
:1005A0000100010001000100010001000100010043
:1005B0000100010001000100000001000100010034
:1005C0000100010001000100010001000100010023
:1005D0000100010000000100010000000100010015
:1005E0000000010000000100010000000100010006
:1005F00001000100010001000100010001000100F3
:1006000001000100010001000100010001000100E2
:1006100001000100010001000000010001000100D3
:1006200001000100010001000100010001000100C2
:1006300001000100000001000100000001000100B4
:1006400000000100000001000100000001000100A5
:100650000100010001000100010001000100010092
:100660000100010001000100010001000100010082
:100670000100010001000100000001000100010073
:100680000100010001000100010001000100010062
:100690000100010000000100010000000100010054
:1006A00000000100000001000100000032190A00F2
:1006B000047F3F1F643214643214783C1E1E140AF7
:1006C000052223252628292A2C2D2F303233353692
:1006D000383A3B3D3E4042434547494A4C4E5051D3
:1006E000535557595A5C5E6062646668696B6D6FFA
:1006F00071737577797B7D7F81838587898A8C8EFD
:1007000090929496989A9C9E9FA1A3A5A7A8AAAC04
:10071000AEAFB1B3B4B6B8B9BBBCBEBFC1C2C3C53E
:10072000C6C7C9CACBCCCDCED0D1D2D2D3D4D5D6E0
:10073000D7D7D8D9D9DADADBDBDBDCDCDCDCDCDD13
:10074000DDDDDDDCDCDCDCDCDBDBDBDADAD9D9D8F7
:10075000D7D7D6D5D4D3D2D2D1D0CECDCCCBCAC98F
:10076000C7C6C5C3C2C1BFBEBCBBB9B8B6B4B3B1BE
:10077000AFAEACAAA8A7A5A3A19F9E9C9A98969459
:1007800092908E8C8A89878583817F7D7B7977752E
:1007900073716F6D6B6968666462605E5C5A59570D
:1007A000555351504E4C4A4947454342403E3D3BCC
:1007B0003A3836353332302F2D2C2A292826252356
:1007C00022FFAA7F55400001010101010101010141
:1007D00002020202020202020203030303030303F2
:1007E00003040404040404040505050505060606BF
:1007F0000606070707070708080808090909090A7C
:100800000A0A0B0B0B0C0C0C0D0D0D0E0E0E0F0F20
:100810000F101011111112121313141415151616AE
:100820001717181819191A1A1B1B1C1D1D1E1E1F1D
:100830002020212222232424252626272829292A6C
:100840002B2C2D2D2E2F3031323233343536373894
:10085000393A3B3C3D3E3F40414243444546474890
:10086000494A4C4D4E4F50515354555658595A5B66
:100870005D5E5F616264656668696B6C6D6F707206
:10088000737577787A7B7D7E8082838587888A8C72
:100890008E8F91939596989A9C9EA0A2A3A5A7A9A6
:1008A000ABADAFB1B3B5B7BABCBEC0C2C4C6C9CB9D
:1008B000CDCFD1D4D6D8DBDDDFE2E4E7E9EBEEF053
:1008C000F3F5F8FAFDFF12036B0065007900620092
:1008D0006F006100720064000000160371006D007B
:1008E0006B006200750069006C00640065007200B6
:1008F00000000403090409023B00020100A0FA09F8
:10090000040000010301010009211101000122403E
:10091000000705810308000A090401000103000023
:100920000009211101000122BC00070582032000FB
:100930000A1201100100000008EDFE6060010001D4
:1009400002000105010902A10185020901A10005BA
:1009500009190129051500250195057501810295E3
:1009600001750381010501093009311581257F9544
:10097000027508810609381581257F950175088162
:1009800006050C0A38021581257F95017508810638
:10099000C0C005010980A101850319012AB700150E
:1009A0000126B700950175108100C0050C0901A151
:1009B00001850419012AA002150126A002950175DE
:1009C000108100C005010906A1018505050719E090
:1009D00029E7150025019508750181020507190011
:1009E00029EF1500250195F075018102050819010F
:1009F0002905950575019102950175039101C005C1
:100A0000010906A101050719E029E715002501954F
:100A100008750181029501750881010507190029F2
:100A2000FF150026FF0095067508810005081901CD
:100A30002905950575019102950175039101C00085
:100A400011241FBECFEFDAE0DEBFCDBF04B603FE38
:100A500027C08091010390910203A0910303B091FC
:100A600004038730904BA740B04BD1F410920103A0
:100A700010920203109203031092040314BE84B771
:100A8000877F84BF0FB6F894A89580916000886135
:100A900080936000109260000FBEE0E0F8E30995DB
:100AA00011E0A0E0B1E0EAECF9E502C005900D929A
:100AB000AA3CB107D9F723E0AAECB1E001C01D922E
:100AC000A130B207E1F70E94F8250C94A72C0C94F2
:100AD000000081E0089581E008950C946B0508956D
:100AE0000C946F051F93CF93DF9300D000D00F922B
:100AF000CDB7DEB749835A836B8330910F0289816A
:100B00009A8131111DC06623B9F02223A9F00E94F9
:100B1000E61C182F682F89819A810E94921C698196
:100B20007A81812F0F900F900F900F900F90DF918F
:100B3000CF911F910C9428060E94BE1C182FEFCF56
:100B40000E94E61C69817A81EDCFFC01262F40814D
:100B500051816281738184810C947205CF93DF93FC
:100B6000EC0160E00E94A505BE01DF91CF910C94DD
:100B700070050E942A1E811102C00E94D81E0C948A
:100B800034080C94370808950E94F9170E94C30591
:100B90002FEF84E39CE0215080409040E1F700C0BB
:100BA00000000C945F200F931F93CF93DF93EC0111
:100BB00061E00E94A5058C01BE010E946D0588239D
:100BC00059F1BE01C8010E947811882329F1BE01A4
:100BD000C8010E94CA118823F9F0BE01C8010E9411
:100BE000ED128823C9F0BE01C8010E94511088236C
:100BF00099F08A81882339F001158CE5180751F0A6
:100C00000F3D1C4579F0CE01DF91CF911F910F91DF
:100C10000C9469050E94C40580E0DF91CF911F917B
:100C20000F9108950E94D81EF7CF08950C941506D1
:100C300081E008950C941806CF93C82F0E941606E1
:100C40008C2FCF910C941A0690E080E008950895BF
:100C5000972F70E02CE0929F600D711D1124FB0115
:100C600090E3899FE00DF11D1124EE0FFF1FE45565
:100C7000FF4F859194910895FC01EE0FFF1FE455FD
:100C8000F94F859194910895CF93DF930E942806A0
:100C90000E945907EC01811520E5920708F042C037
:100CA000811530E4930708F0BDC0883E910528F512
:100CB000803E910508F09DC0883A910588F4853AF8
:100CC000910508F08FC08130910509F492C000971A
:100CD00009F48FC0049708F08CC0D0E0C0E089C050
:100CE0008F3B910508F489C0805C9109C03CD10517
:100CF000A0F30E943C06EC017CC08115904250F4A8
:100D0000C11581E0D80708F074C0C03FD10528F3B1
:100D1000D0656FC0C11590E3D90708F079C0CE0146
:100D20009F70E7CF811525E5920758F5811534E5C9
:100D3000930708F0A6C0811542E5940750F4C11549
:100D400081E5D80708F471C0DC2FCC27C16FD06AC9
:100D500050C0982F969596959E0123703327C11504
:100D6000D34508F07FC0C1E0D0E002C0CC0FDD1F4A
:100D70002A95E2F720E2929FC0011124C82BD92BBB
:100D80006FC0C11589E5D807A8F4C11598E5D90742
:100D900008F07CC0C11526E5D20708F09ECF8C2F45
:100DA0000E94F007C82FD0E0DC2FCC27CC27DF71C2
:100DB000D0621FC0C1153AE5D30708F46CC0CE015C
:100DC00090568115904208F088CF8D2F8F710E9428
:100DD000F00790E0982F882788279F719C012C2B83
:100DE000E901E6CFC55AD0E0C65ADE4FC881D0E04F
:100DF000D064CE01DF91CF910895C85AD0E0CC0FD6
:100E0000DD1FC45DDE4F0990D881C02DD464F1CFC1
:100E1000CE019927D3FF03C0EC01D86CEACFEC01D7
:100E2000D06CE7CFDF70D06AE4CFCE01E4E09695D6
:100E30008795EA95E1F783702C2F269526952370E8
:100E400090E2299F90011124382B8C2F8370C1E0F0
:100E5000D0E002C0CC0FDD1F8A95E2F7C22BD32B66
:100E6000DC68C7CFC1E0D0E002C0CC0FDD1F2A95FF
:100E7000E2F730E2939FC0011124C82BD92BDA6826
:100E8000B8CFD82FCC27C46FD06AB3CFDC2FCC27F4
:100E9000C06FD06AAECF8C2F8F700E94F00734E005
:100EA000D695C7953A95E1F7CF709C2FEC01D069A4
:100EB000A0CF82389105B1F1B0F48133910509F4E6
:100EC00075C048F48932910509F469C08A329105E8
:100ED00009F473C008958533910509F459C0893325
:100EE000910501F10895833E9105A9F138F4803E02
:100EF0009105F9F0823E910549F10895863E9105EC
:100F0000A9F1873E9105C9F1843E910519F520911B
:100F1000F30221FF1FC08091F20284FD14C087EE0E
:100F200090E008952091F2022370A1F080EE90E00D
:100F300008952091F20220FD47C03091F30230FF66
:100F400009C024FF44C090E080E004C02091F20278
:100F500022FDF7CF08952091F20222FD3BC030918F
:100F6000F30230FDE3CF24FFF5CFEDCF2091F20265
:100F700023FFF0CF24FDE7CFD2CF2091F20223FD53
:100F80002CC03091F30231FFEECF84EE90E0089553
:100F90002091F20225FFDECF89E290E008952091B2
:100FA000F20225FFD7CF85E390E008952091F20269
:100FB00026FFD0CF8AE290E008952091F20226FF2A
:100FC000C9CF81E390E0089589E390E0089583EE2E
:100FD00090E0089582EE90E0089586EE90E0089506
:100FE0009091F20292FF06C0282F28712830F9F460
:100FF000877F846093FF06C0282F28712831F1F481
:10100000877E84612091F30220FF06C0382F38715B
:101010003830D9F4877F816021FF06C0282F2871DE
:101020002831D1F4877E816194FD877E0895282F31
:1010300024712430F9F68B7F8860DCCF282F24714F
:10104000243101F78B7E8861DDCF382F317131304B
:1010500019F78E7F8860E0CF282F2171213121F789
:101060008E7E8861E1CF08950C94330808950C9426
:101070003608E82FF0E0EE0FFF1FE453FD4F8081AC
:1010800091810895089580EA8A95F1F70895F8947A
:10109000E82FE295EF70F0E031A1282F2F7081E06A
:1010A00090E001C0880F2A95EAF7982F9095932336
:1010B00091A392A1892B82A378940895CF93DF9373
:1010C00084EF0E94470885EF0E94470886EF0E9440
:1010D000470887EF0E944708CDE5D1E089910E943B
:1010E000470881E0C936D807C9F71092C5021092A7
:1010F000C4021092CD021092CC021092C70210923C
:10110000C6021092CF021092CE021092C902109223
:10111000C8021092D1021092D0021092CB0210920B
:10112000CA021092D3021092D20284E00E941A09DD
:10113000DF91CF910C94B905AF92BF92DF92EF92FD
:10114000FF920F931F93CF93DF93C9E6D1E004EC96
:1011500012E0D12CEE24E394F12C8991F894E82F3D
:10116000E295EF70F0E021A18F70A70102C0440F5B
:10117000551F8A95E2F7CA01922F982B91A392A14D
:101180008095892382A378940E944308EDE5F1E0DD
:1011900030E020E0B12CA12C4191A42FA295AF709A
:1011A000B0E090968C9190E04F7002C09595879535
:1011B0004A95E2F780FD39C0C701022E02C0880FB0
:1011C000991F0A94E2F7A82AB92A2F5F3F4F2C30C3
:1011D000310511F7FE01319780810E944708F8011F
:1011E00080819181A816B90619F1B182A08281E0AF
:1011F000D82A0E5F1F4FF1E0CD36DF0709F0ADCFE3
:101200002D2D44E06CEC72E084EC92E00E941B090E
:101210000E94C1058D2DDF91CF911F910F91FF90FD
:10122000EF90DF90BF90AF90089590E080E0CBCF3B
:1012300080E0DECF0895FF920F931F93CF93DF934B
:10124000F82E092F162FD72FC42F222349F081E023
:101250008093CC010E9420209093CB018093CA01FF
:101260008091CC018823A1F08091CA019091CB019B
:101270000E942C20069760F0EF2DF02FA12FBD2F9C
:1012800090E080E0D0E08C179D0744F01092CC01F4
:10129000DF91CF911F910F91FF900895219131918E
:1012A0002D933D930196EFCFEF92FF920F931F93F3
:1012B000CF93DF93EB01E82FD11110C0442321F02D
:1012C000F0E0EA53F84FE4916E2F7E2F8E2FDF91DE
:1012D000CF911F910F91FF90EF9008950D2F10E087
:1012E000282F30E0442329F02A53384FF901249164
:1012F00030E0F6E0CF9FC0011124EFEFF0E0BF0136
:101300000E94562BAB018C2F90E0880F991FA5E50A
:10131000A49FB001A59F700D1124861B970B982FD9
:10132000990F980FBF01601B710B629FD001639FE3
:10133000B00D729FB00D11248B2F9D9FB001112411
:10134000672F7727EF01C61BD70BBE01629FE00115
:10135000639FD00D729FD00D11247F01E91AF1080F
:10136000E09EB001E19E700DF09E700D1124672F7C
:101370007727E61BF70BE29F8001E39F100DF29F9A
:10138000100D1124E12F722F4230510599F048F4CD
:101390004115510569F04130510581F0EB2F8D2F3A
:1013A00007C04430510569F080F046305105B1F76F
:1013B0006E2F8DCFE22F7B2F812FFACFE22F7D2F43
:1013C000F7CFEB2F822F712FF3CF7B2F822FED2FB3
:1013D000EFCF41E00C94540908950C94E909CF93A0
:1013E000DF93762FE901682F842F0E94ED0979831E
:1013F00068838A83DF91CF9108958091D402982FDA
:101400009E7F29F4817082608093D402089586358E
:10141000E8F381708465F8CF88E090E00C94482C64
:10142000CF92DF92EF92FF926B017C010E94FD0947
:10143000B701A60188E090E0FF90EF90DF90CF9099
:101440000C94662CE4EDF2E083E0808311828FEF50
:1014500082838383148260817181828193810C9461
:10146000100A8091D40280FF02C08695089580E022
:1014700008959091D802933018F49F5F9093D8020A
:10148000882351F06091D4027091D5028091D602E8
:101490009091D7020C94100A089581E00C94390AB7
:1014A0009091D802992319F091509093D8028823F3
:1014B00051F06091D4027091D5028091D602909142
:1014C000D7020C94100A089581E00C94500A70E041
:1014D0000C94C110609108018091D40280FF0AC071
:1014E0008091070123E0829FC001112487529D4F04
:1014F0000C94670A8091090190910A0123E0829F70
:10150000F0011124E752FD4F891750F71182108224
:1015100012828F5F3396F8CF9091D40290FF14C05F
:101520009091090120910A0133E0939FF001112469
:10153000E752FD4F921710F00C946A0A8183608382
:1015400042839F5F3396F6CF0895CF93DF9300D009
:101550000F92CDB7DEB79091D40290FF0AC09E01E2
:101560002F5F3F4F0E94EF094B8169818A810E9462
:101570008C0A0F900F900F90DF91CF910895CF9329
:10158000DF93EC01EC81F0E0EF53F94F4491E4ED8F
:10159000F2E0628181810E94A50A8C818F5F8C8339
:1015A000DF91CF910895CF93DF93EC01E4EDF2E06A
:1015B000438162818C810E94A50A8C818F5F8C831C
:1015C000DF91CF9108950F931F93CF93DF9300D0B6
:1015D0000F92CDB7DEB78C018091CD0181110AC089
:1015E0009E012F5F3F4F4FEF6FEF0E94EF098A81FF
:1015F0008093CD01F8016481613069F08091CD0163
:1016000040E0662361F040E0623011F44091CD018A
:1016100080E060E004C06091CD0140E080E00E9485
:101620008C0AF801848190E0019663E070E00E94EA
:101630006A2B84830F900F900F90DF91CF911F91B1
:101640000F910895AF92BF92CF92DF92EF92FF92E7
:101650000F931F93CF93DF9300D00F92CDB7DEB7D8
:10166000182FF62E042FE22E9091D40290FF29C05D
:10167000E92FE695AE2FB0E0A359BE4F8C91809331
:10168000FA019E7F923059F59E012F5F3F4F812FC7
:101690000E94EF094B8169818A810E948C0A109314
:1016A000D502F092D6020093D702EE2051F060915D
:1016B000D4027091D5028091D6029091D7020E94F7
:1016C000100A0F900F900F90DF91CF911F910F9103
:1016D000FF90EF90DF90CF90BF90AF900895823051
:1016E00019F40091D702DBCF863019F41091D5029E
:1016F000D6CF8930D9F3893191F6E9518E2F817097
:10170000D82EE695F0E0EF53F84FA590B490C12C99
:10171000BB2460910B01C61618F00E946A0ABFCF65
:101720002C2D30E0A29EC001A39E900DB29E900D84
:10173000112470E00E94562B812FD11013C0860F08
:1017400040910901420F532F511D9A01220F331F5F
:10175000240F351F27523D4F402F6F2D0E94EF0958
:10176000C394D7CF861BECCFE4EDF2E09181282F14
:101770004381628188E0890F0C94220B81E00C94F4
:10178000B40BE4EDF2E09181282F4381628188EF70
:10179000890F0C94220B81E00C94C10BE4EDF2E074
:1017A000628128E0620F08F46FEF282F4381818166
:1017B0000C94220B81E00C94CE0BE4EDF2E06281FC
:1017C00028E0621B08F460E0282F438181810C949B
:1017D000220B81E00C94DD0BE4EDF2E0438128E084
:1017E000420F08F44FEF282F628181810C94220B65
:1017F00081E00C94EC0BE4EDF2E0438128E0421B25
:1018000008F440E0282F628181810C94220B81E052
:101810000C94FB0B20E00C94220BEF92FF921F9391
:10182000CF93DF93EC0110E0EE24EA94F12C609169
:101830000B01161770F00E946A0A9A818C8190FF42
:1018400027C08F5F8C83DF91CF911F91FF90EF9026
:10185000089520910901422F410F5527551FCA01B4
:101860009A01220F331F280F391F27523D4F70E076
:10187000C7010E946A2B962F8C814091D7026091FC
:10188000D602199F800D11240E94EF091F5FCFCF50
:101890008150D8CFAF92BF92CF92DF92EF92FF925A
:1018A0000F931F93CF93DF93FC0182810FEF80FF93
:1018B00001E010E047E0A42E80910B011817C8F05A
:1018C0000E946A0A8091CF01013009F055C0811150
:1018D00002C080910B0181508093CF01DF91CF91A5
:1018E0001F910F91FF90EF90DF90CF90BF90AF903E
:1018F0000895C0910901C12ED12CCC0DDD2DD11D33
:10190000CE01880F991FC80FD91FC752DD4F19820A
:1019100018821A8234E0E32EF12CB12C8091CF0191
:101920008B0D88301CF16A2D0E94482B892F082EC0
:10193000000C990BC816D90691F48091D7028E9DA0
:10194000A0018F9D500D11245595479555954795AC
:101950009E016091D6028091D5020E94EF09B00EDF
:10196000F1E0EF1AF108D1F61F5FA6CF87FFDFCFB6
:1019700090910B01890FDBCF90E0019660910B01F4
:1019800070E00E946A2BA8CF0F931F93CF93DF9331
:101990008091090190910A0123E0829FF0011124B6
:1019A000E752FD4F891740F1C0E0D3E060910B0191
:1019B000C61740F10E946A0A209105018091CE016C
:1019C000820F8093CE0190910601920F90930601B1
:1019D000191654F4082E000C990B40910B0141503C
:1019E000550B841795071CF0219520930501DF9175
:1019F000CF911F910F9108951182108212828F5FF3
:101A00003396D0CF0C2F10E070E0C8010E946A2BF3
:101A100020910901820F482F50E02091CE01022E23
:101A2000000C330B02171307BCF020910601022EA5
:101A3000000C330B201731077CF08D9F900111248F
:101A400027523D4F4091D7026091D6028091D50236
:101A50000E94EF09CF5FAACFFA01EE0FFF1FE40F3C
:101A6000F51FE752FD4F118210821282F3CF8F9241
:101A70009F92AF92BF92CF92DF92EF92FF920F931D
:101A80001F93CF93DF93EC014C81042F10E098015A
:101A9000D8010E94AE2B9B01AC010E94C42B4B01CC
:101AA0005C01E0E2F0E0E01BF10BA5E5B0E0AC0189
:101AB0009B010E94C42B6B017C019F01DF010E94EE
:101AC000A62B9B01AC010E94CF2B9B01AC01280DE2
:101AD000391D4A1D5B1DC701B6010E947E2BF22EE7
:101AE000822F90E039E23F1560F143E0249F90019E
:101AF000112435952795122F109500E085E5E82EE5
:101B0000EF1880910B01081758F10E946A0A9C8116
:101B100081E0992319F0903219F48FEF809304013A
:101B200080910401890F8C83DF91CF911F910F91D8
:101B3000FF90EF90DF90CF90BF90AF909F908F90ED
:101B4000089525E530E0B901681B790B9B01220F50
:101B5000331F260F371F37FFCCCF2F5F3F4FC9CF23
:101B60008E2D01FD8F2D20910901622F600F7727A7
:101B7000771F9B01220F331F260F371F27523D4F20
:101B8000412F6091D6020E94EF090F5FBACF0F93E9
:101B90001F93CF93DF93EC0110E000E090910B01D5
:101BA0009017110609F06CF40E946A0A8C8190E08B
:101BB0000196817099278C83DF91CF911F910F91AE
:101BC000089520910901A801420F511D9A01220F89
:101BD000331F240F351F27523D4F4C816091D60291
:101BE0008091D50296959017110651F04CF0442340
:101BF00049F04091D7020E94EF090F5F1F4FCECFEF
:101C00004423B9F340E0F7CF8F929F92AF92BF92F7
:101C1000CF92DF92EF92FF920F931F93CF93DF93B8
:101C2000FC01B280948081E0848300E015E05BE4F5
:101C3000A52E88248394EE24EA94F12C7BE4C72E0D
:101C4000D12C80910B01081770F0DF91CF911F917B
:101C50000F91FF90EF90DF90CF90BF90AF909F904B
:101C60008F900C946A0AC02FD0E01C9FF0011D9F3A
:101C7000F00D1124E053FE4F91101CC0138212820C
:101C800020910901CE01820F911D9C01220F331F6B
:101C9000280F391F27523D4F1C9FF0011D9FF00D4B
:101CA0001124E053FE4F4281618180810E94EF093F
:101CB0000F5FC7CF2381222379F121502383348101
:101CC0008A2D821B311101C0822F1C9FF0011D9FA4
:101CD000F00D1124E053FE4F9091D702899FC0016F
:101CE0001124B6010E94562B6283211104C03323B4
:101CF00011F01482A38222E02B1510F21C9FF00138
:101D00001D9FF00D1124E053FE4F8091D50280837A
:101D10008091D6028183B4CF0E94232C82309140DF
:101D20000CF0AECF82E08B1530F50E94232CB7016A
:101D30000E946A2B1C9FF0011D9FF00D1124E0539F
:101D4000FE4F808322E02B15C8F40E94232C2091A3
:101D5000D6022695622F70E00E946A2B280F1C9FE6
:101D6000F0011D9FF00D1124E053FE4F21831282DC
:101D7000A382848285CF8091D502DCCF2091D602C8
:101D8000EECFE4EDF2E080818E7F8083608171810F
:101D9000828193810E94100A1092FB012FEF80E74D
:101DA00092E0215080409040E1F700C000000C9488
:101DB0006A0A6091D402669570E04BE050E08CE0D6
:101DC00091E00E94332C892B19F481E08093FB0170
:101DD0000E9420209093F4018093F3010895909144
:101DE000D40290FF35C09170811128C09260909309
:101DF000D402662351F06091D4027091D502809193
:101E0000D6029091D7020E94100A6091D402669582
:101E100070E04BE050E08CE091E00E94332C892B85
:101E2000A1F01092FB0181E08093F6014091D7026E
:101E30006091D6028091D5020C940A0C8B3210F07E
:101E40009465D5CF880F982BD2CF0E94D90EEBCFB7
:101E50000895682F9091D402969581E0890F8B3276
:101E600008F081E00C94EF0E81E00C94290F682FAC
:101E70009091D40296958FEF890F09F48AE20C9421
:101E8000EF0E81E00C94370F61E00C94EF0EE4ED5F
:101E9000F2E080818160808386950C94440F80916C
:101EA000D40280FD0C94C10E0C94470F60E00C949A
:101EB000EF0E8091F90181112EC00E942A1E81111E
:101EC00004C00E94D81E0E94220A0E940C0A60933D
:101ED000D4027093D5028093D6029093D7026E7F7E
:101EE00061F40E94220A0E940C0A6093D40270934B
:101EF000D5028093D6029093D7020E94FD091092DA
:101F0000FB018091D40280FF03C086950E94560F8A
:101F100081E08093F90108950F931F93CF93DF938E
:101F20008091FB01882309F49DC08091FA01E09122
:101F3000D402E695E81BE093F5018230C9F5F0E0A4
:101F4000E354F94FE491CE2FD0E00FEB1AE08091EB
:101F5000F601882389F01092F6010E9420209E014C
:101F600020953095820F931F9093F4018093F30195
:101F70001092F8011092F7018091F3019091F40111
:101F80000E942C208C179D0708F46CC0E091F3018F
:101F9000F091F401CE0FDF1FD093F401C093F30151
:101FA00083EF91E0F801DF91CF911F910F91099498
:101FB000863049F4F0E0E654F94FE491CE2FD0E0BA
:101FC00003ED1AE0C4CF893051F4E695F0E0E9540E
:101FD000F94FE491CE2FD0E00DE01CE0B8CF8F3068
:101FE00051F4E695F0E0EC54F94FE491CE2FD0E0B7
:101FF0000AE41CE0ACCF853149F4F0E0EF54F94F2E
:10200000E491CE2FD0E004EC1CE0A1CFC8E2D0E0F8
:1020100007E31DE0883109F49ACF833239F4EFEAFF
:10202000F6E0C591D49103EE1AE091CFC4EFD1E070
:1020300007EC1DE0843209F48ACFC0EDD7E00CEE46
:1020400019E0853209F083CF8E2F63E00E943C2B8C
:10205000E92FF0E0E455F94FE491CE2FD0E004E011
:102060001EE075CFDF91CF911F910F910895FA0176
:10207000811101C0FB010994CF93DF93C82FD62FA4
:102080000E94310A8C1740F00E94310A8D1720F40B
:10209000DF91CF910C94340F8C2FDF91CF910C9462
:1020A000440F0F931F93CF938C01FB01C281CC236C
:1020B00009F465C00E947B1D8272F801E35CFC4557
:1020C000E431F10538F4E755F34D0C94A02B0E9450
:1020D0004F0FC0E08C2FCF911F910F91089541E4D5
:1020E0005FE064E37FE00E943710F3CF44E35FE0FA
:1020F00061E47FE0F8CF4BEC5BE06EEB7BE0F3CF8D
:102100004EEB5BE06BEC7BE0EECF49EE5BE06AED23
:102110007BE0E9CF4AED5BE069EE7BE0E4CF47E0AE
:102120005CE068EF7BE0DFCF48EF5BE067E07CE0FE
:10213000DACF44E65AE06DE47AE0D5CF4DE45AE0D8
:1021400064E67AE0D0CF81E00E94440FC2CF65E020
:1021500082E00E943C10BDCF68E086E0FACF6EE0DE
:1021600089E0F7CF64E18FE0F4CF67E185E1F1CF5B
:1021700088E1EACF62E289E1ECCF83E2E5CFC1E01A
:10218000A9CF539A4BB1477F5BB15860EFB7F89432
:102190009B01220F331F260F371F280F391F2817C7
:1021A000390741F4EFBF8FE594E00197F1F700C0E4
:1021B00000000895DC016D91CD0178E05BB900006D
:1021C00000C067FF4BB9660F000000C000C000C030
:1021D0004BB900C07A9591F7E2CFAF92BF92CF9200
:1021E000DF92EF92FF920F931F93CF93DF937C01C7
:1021F0005B01C42FD22FFC0182818823F9F0409328
:10220000FE010E9420209093FD018093FC0180E25A
:102210008C0F883008F061C0C77081E001C0880F62
:10222000CA95EAF7DF91CF911F910F91FF90EF9040
:10223000DF90CF90BF90AF900C947D151091FE0170
:10224000141340C08091FC019091FD010E942C204C
:102250006C01B701C5010E946F1AC816D90690F526
:10226000C0E2CD0F1D17B9F080E2810F883040F435
:10227000177081E001C0880F1A95EAF70E94841553
:10228000C83048F481E09D2F977001C0880F9A955F
:10229000EAF70E947D15802F0E946A15C830E8F485
:1022A000D77081E001C0880FDA95EAF7DF91CF910E
:1022B0001F910F91FF90EF90DF90CF90BF90AF9064
:1022C0000C94841580E28C0F883038F4C77081E05C
:1022D00001C0880FCA95EAF7E9CFDF91CF911F912E
:1022E0000F91FF90EF90DF90CF90BF90AF90089547
:1022F0000F939C01CB01243F4CE5340759F1A8F41E
:10230000293DFCE53F0701F12A3D4CE53407D1F1B9
:10231000283D3C4591F406E221EE41EE68ED7CE576
:102320000E94ED1080E00F910895263FFCE53F07E5
:10233000E9F0B0F0273F3C45F9F0FC0182818823A9
:1023400039F11092FE01EFCF07E225EE45EE69ED7F
:102350007CE5E6CF06E221EE40EE64EF7CE5E0CFDF
:1023600007E225EE44EE65EF7CE5DACF06E221EEEA
:1023700042EE66EF7CE5D4CF07E225EE46EE67EF4E
:102380007CE5CECF08E221E045EE6AED7CE5C8CFE2
:1023900081E0C9CFCF93DF93EC01FB0182818823D9
:1023A00009F419C1C230FCE5DF07C0F1C6319CE574
:1023B000D90730F09E012B5F3C452930310570F57F
:1023C0000E94471E9093F3028093F202C031ECE525
:1023D000DE0709F4CFC008F05BC0C8308CE5D80731
:1023E00009F4B6C088F5C430ECE5DE0709F4A8C0EE
:1023F000C0F4C2308CE5D80709F49CC08091F20289
:102400008260C330DC4509F498C08091F20290915B
:10241000F3020E94551E0E94F91780E0DF91CF91D0
:1024200008958091F2028061C630ECE5DE0709F480
:1024300084C08091F2028860C730DC4508F47DC01A
:102440008091F202806279C0CC308CE5D80709F423
:1024500089C070F48091F2028C60CA30ECE5DE072E
:1024600009F46BC008F478C08091F2028E7F65C0D9
:10247000CE308CE5D80709F479C08091F2028B7FC9
:10248000CF30DC4508F459C08091F2028F7E55C0F0
:10249000CC3FECE5DE0709F457C030F5C3318CE5DD
:1024A000D80709F46FC078F4C131ECE5DE0709F410
:1024B00065C0C231DC4509F0A8CF0E94F9178091B0
:1024C000F2028F773AC0C5318CE5D80709F462C0B3
:1024D00008F476C08091F3028160CB3FDC4509F0BF
:1024E00094CF8093F30291CFC115FDE5DF0709F486
:1024F0004DC088F48091F3028D7FCE3F9CE5D907D3
:1025000081F38091F3028E7FCF3FDC4550F38091C1
:10251000F3028360E6CFC230FDE5DF0709F459C05E
:1025200008F444C080E0C330DD4509F06ECF0E945E
:10253000DA1E6BCF8091F20281608093F20265CF48
:102540008091F2028460F9CF8091F3028260C9CF5A
:102550008091F2028064F1CF0E94F9178091F2021B
:102560008068EBCF8091F2028D7FE7CF8091F202FD
:10257000877FE3CF8091F2028F7DDFCF8091F202DF
:102580008F7BDBCF8091F202837FD7CF8091F302E4
:102590008C7FA7CF8091F20282FB992790F921E0EE
:1025A000922790FB82F990FB83F9C7CF8091F302C9
:1025B000982F909591708E7F892B90FB81F991CF08
:1025C0000E94F9179091F202892F97FB87F98058A2
:1025D000B4CF81E0ACCF81E021CFCF93DF93EB018B
:1025E00086319C4511F50E947B1D9A81992399F0B3
:1025F0008A7A91E009F490E09093FF01811109C07B
:1026000089E20E94561D0E94C71D80E0DF91CF9194
:10261000089585E3F6CF8091FF01811104C089E21E
:102620000E945D1DF0CF85E3FBCF81E0EFCF90935B
:102630000502809304020895E0910402F0910502DE
:10264000309721F00190F081E02D099480E0089509
:10265000E0910402F0910502309799F020912B014E
:10266000222359F02091F20227FF07C0DC012C91B0
:1026700011962C93119725E02C930280F381E02D85
:1026800009940895E0910402F0910502309739F021
:1026900022E0DC012C930480F581E02D099408955B
:1026A00020910202309103022817390771F09093AC
:1026B000030280930202E0910402F0910502309738
:1026C00021F00680F781E02D099408952091000201
:1026D000309101022817390771F09093010280931D
:1026E0000002E0910402F0910502309721F000848D
:1026F000F185E02D0994089585B7806885BF85B779
:10270000806885BF0895089508950C9483130895F3
:102710000C9487130E947C130E9484130C948513DD
:1027200081E008950C949013089508950E94172055
:102730000E945E080E94BB200E94590F0C948813CF
:102740009F92AF92BF92CF92DF92EF92FF920F9340
:102750001F93CF93DF93CDB7DEB72A970FB6F894C8
:10276000DEBF0FBECDBF0E9494130E9495130E943E
:102770009C080E949213882309F472C057E0A52E8A
:1027800052E0B52E10E000E0902E802F0E94390814
:102790006C01F501E190F1905F01E816F90609F48A
:1027A00059C08091930281FD0E94420897012C2517
:1027B0003D2580E0EE24E394F12CA9014E215F2118
:1027C000452B09F441C08E839F82CE20DF2081E01B
:1027D000CD2809F480E088870E9420208160782F2E
:1027E0009A8789874E815F8168858A850E94531404
:1027F000000F111FF801E95FFD4F80819181E826EC
:10280000F926F182E0820E948C0F0E9469230E94C7
:102810001C13909106028917A1F10E941C1380934A
:1028200006022A960FB6F894DEBF0FBECDBFDF9129
:10283000CF911F910F91FF90EF90DF90CF90BF90BD
:10284000AF909F900C941C068F5FEE0CFF1C8C3099
:1028500009F0B3CF0F5F1F4F0430110509F094CF7B
:102860008FEF89838A831B820E9420208160782FCA
:102870009D838C8349815A816B818D810E94531481
:10288000C2CF2A960FB6F894DEBF0FBECDBFDF9140
:10289000CF911F910F91FF90EF90DF90CF90BF905D
:1028A000AF909F900895CF93DF93CDB7DEB72B976E
:1028B0000FB6F894DEBF0FBECDBF4F835887698730
:1028C0007A878B871E821D8285E0FE013796DE01A6
:1028D000119601900D928A95E1F749815A816B8199
:1028E0007C818D819E812B960FB6F894DEBF0FBE42
:1028F000CDBFDF91CF910C94721AFC018081918140
:102900000C94281DCF93C82F882309F48BC08238DC
:10291000C1F40E941C1381FD85C089E30E94561DED
:102920000E94C71D2FEF81EE94E02150804090401F
:10293000E1F700C0000089E30E945D1DCF910C9477
:10294000C71D8338A1F40E941C1380FD6BC083E572
:102950000E94561D0E94C71D2FEF81EE94E021506A
:1029600080409040E1F700C0000083E5E5CF843867
:10297000A1F40E941C1382FD55C087E40E94561DDD
:102980000E94C71D2FEF81EE94E0215080409040BF
:10299000E1F700C0000087E4CFCF8CEF8C0F813AC5
:1029A00090F46C2F80911701909118010E94F31EF2
:1029B000882329F08C2F0E945D1D0E94C71D8C2F3B
:1029C0000E94561DBBCF80E28C0F883048F4C77040
:1029D00081E001C0880FCA95EAF70E947E1DAECF44
:1029E000EBE5EC0FE33040F4F0E0EA53FE4F80817A
:1029F00090E0CF910C945013E8E5EC0FE73150F4E0
:102A0000F0E0EE0FFF1FE856FE4F80819181CF91DD
:102A10000C946613C03F30F08C2F0E946322CF913C
:102A20000C944E23CF910895882309F452C0823824
:102A300071F40E941C1381FF4CC089E30E94561D53
:102A40000E94C71D89E30E945D1D0C94C71D833839
:102A500059F40E941C1380FF3CC083E50E94561D60
:102A60000E94C71D83E5EFCF843859F40E941C13E0
:102A700082FF2FC087E40E94561D0E94C71D87E475
:102A8000E2CF9CEF980F913AF0F290E2980F9830D5
:102A900050F4877091E001C0990F8A95EAF7892F69
:102AA0000E94841DD2CF9BE5980F933020F490E0D4
:102AB00080E00C94501398E5980F973120F490E043
:102AC00080E00C946613803F20F00E94CB220C948F
:102AD0004E230895CF93C82F0E948214C93349F41E
:102AE0002FEF87EE93E0215080409040E1F700C047
:102AF00000008C2FCF910C941415882321F00E9494
:102B00007E1D0C94C71D0895882321F00E94841D0A
:102B10000C94C71D0895BF92CF92DF92EF92FF925F
:102B20000F931F93CF93DF936C01D62FC72FFC0118
:102B3000058102950F70128111110E949B1D0E9448
:102B4000741DE82E882391F01123D1F08C2F807F03
:102B5000803421F080E28D0F883090F082E00E9476
:102B6000121E0E94741D91E0E82EE926BC2EB2943C
:102B70009FE0B922EB2DF0E0E354F34D0C94A02B31
:102B8000E12CF4CF0C2F0F70C07F11F00295007F65
:102B90001123A9F0002359F080E28D0F883010F046
:102BA000D11109C0802F0E947E1D0E94C71D8D2F4C
:102BB0000E94821414C0802F0E948E1DF6CF8D2F8C
:102BC0000E941415002359F080E28D0F883010F018
:102BD000D1112CC0802F0E94841D0E94C71D2B2D57
:102BE0002850330B2430310520F40E941C130E941E
:102BF0001C06EE2009F49EC10E94701D80FD9AC142
:102C0000F60112820E946A1D0E94F61BC6010E94F4
:102C1000BB170E946A1DDF91CF911F910F91FF900A
:102C2000EF90DF90CF90BF900C94171C802F0E94E4
:102C3000941DD3CFFC2FFF70FF2EC07FC03219F040
:102C4000F29480EFF822DD2369F0D13049F11123AD
:102C500091F1002351F1F601858180FFA8CF8F709B
:102C6000858323C0112381F0011106C00E94AE1D8F
:102C70008F290E947D15B3CF0130C1F70E94AE1D90
:102C80008F290E94B41DABCF011106C00E94BD1D4B
:102C90008F2D0E948415A3CF013009F4A0CFF6CF69
:102CA000112329F0063008F09ACF8F2DE2CF05309E
:102CB00008F095CFEDCF002359F3D93349F4FFEF56
:102CC00027EE33E0F15020403040E1F700C0000033
:102CD0008D2F0E94141583CF8C2F86958695837037
:102CE00069F0813009F07BCF8D2F9C2F93701111EB
:102CF00002C090E080E00E94661371CF8D2F9C2F60
:102D00009370111102C090E080E00E94501367CFD1
:102D10008D2F112329F00E9463220E944E235FCF42
:102D20000E94CB22FACF8C2F837009F041C0111181
:102D300056CF4D2F429546954770440F440F0D2FA7
:102D40000F7010E030E020E0042E04C0000F111FCF
:102D5000221F331F0A94D2F760E070E0CB01D4FF4A
:102D60000FC06FE070E080E090E004C0660F771F56
:102D7000881F991F4A95D2F7609570958095909518
:102D8000C695C695C370602B712B822B932BC230D6
:102D900049F058F4C13019F00E94A81B20CF0E94BE
:102DA000961B1DCF0E94BA1B1ACF0E94941B17CFEF
:102DB0008695112311F08C2F8170882309F40FCF91
:102DC0004D2F429546954770440F440F0D2F0F70BD
:102DD00010E030E020E0042E04C0000F111F221F7D
:102DE000331F0A94D2F760E070E0CB01D4FF0FC02C
:102DF0006FE070E080E090E004C0660F771F881FEE
:102E0000991F4A95D2F76095709580959095C695D3
:102E1000C695C370602B712B822B932BC23049F067
:102E200058F4C13019F00E946D1CD9CE0E945B1C71
:102E3000D6CE0E947F1CD3CE0E94D01BD0CECF70A6
:102E4000112329F08C2F0E94F61B8D2F12CF8D2F6E
:102E50000E9484158C2F0E94171CC1CED23F89F18D
:102E600060F4D03FC9F0D13F29F1112309F442C0E9
:102E700001119DCE8C2F8F7121C0D33F39F1D43FEA
:102E8000A1F7112369F1CF718C2F0E94F61B63E02B
:102E90008C2F0E94FD1DA3CE112341F0053008F0B8
:102EA0009ECE8C2F8F710E943A1C99CE063008F06E
:102EB00096CEF7CF8C2F8F71112369F20E94F61BEB
:102EC0008ECE8C2F8F711123C9F3C5CF112329F01A
:102ED0008C2F8F710E94E11B82CE0E94DC1B7FCE63
:102EE00081E00E94121E023008F479CE82E00E9436
:102EF000121E75CE002359F0D93309F0E9CE8FEFB9
:102F000097EEE3E081509040E040E1F7DFCE8C2F78
:102F10008F71A1CF4C2F4F706D2FC6010E942406D8
:102F20000E940C1B5CCE4C2F4F706D2FC6010E946F
:102F3000270655CEDF91CF911F910F91FF90EF9013
:102F4000DF90CF90BF9008950F931F93CF93DF939F
:102F5000EC01688179818A810E94321D8C010E9476
:102F6000911C0E94931BB801CE01DF91CF911F915C
:102F70000F910C948B15CF93DF93EC018B819C8187
:102F8000892B29F08881998189238F3F59F4DF911A
:102F9000CF910895CE010E94A417CE01DF91CF9169
:102FA0000C94AE05CE010E94D3058111F3CF0E948F
:102FB000741D882361F38A81882349F382E0DF91BD
:102FC000CF910C94121E0E949B1D0E94AB1D0E946B
:102FD000C71D0E9475240E944E2390E080E00E944D
:102FE000501390E080E00C9466130E94641D0C94D2
:102FF000E3170E948B1D0C94F517E92FE295EF70F3
:10300000E250EE3070F4F0E0E353F34D0C94A02B5B
:10301000803F19F020F4883E20F481E00895843F39
:10302000E1F380E00895883EC0F3813FD1F7F5CF0A
:1030300093FB882780F908950E94281D0C94FD17A2
:10304000CF93DF9300D000D00F92CDB7DEB70F90B3
:103050000F900F900F900F90DF91CF910895CF9325
:10306000DF9300D000D000D0CDB7DEB726960FB6E4
:10307000F894DEBF0FBECDBFDF91CF9108951F93AF
:10308000CF93DF93C091100216E0809111028C1350
:1030900004C0DF91CF911F910895D0E01C9FF001F3
:1030A0001D9FF00D1124EE5EFD4F40815181628124
:1030B0007381848195810E942F182196C770E5CF76
:1030C0004091420250914302609144027091450246
:1030D00080914602909147020C942F181F93CF9332
:1030E000DF9380914702807FA9F480914402882376
:1030F00089F080911002C09111026091420270919A
:103100004302A0914502B0914602D62FD72316E084
:10311000C81304C0DF91CF911F91089590E01097DC
:1031200011F0DF3F19F401968770F2CF189F9001DC
:10313000199F300D1124F901EE5EFD4F41814713B7
:10314000F2CF40814613EFCF42814111ECCF438152
:1031500054814A1B5B0B483C510528F7809147027C
:103160008F70806180934702F901E95EFD4F808195
:103170008F708061808382E492E00E94BB17DF91B0
:10318000CF911F910C943F18AF92BF92CF92DF92D4
:10319000EF92FF920F931F93CF93DF93CDB7DEB7DC
:1031A00061970FB6F894DEBF0FBECDBF8C0185E0EE
:1031B000F801DE011D9601900D928A95E1F7F80164
:1031C00040815181E28082E4C82E82E0D82E609155
:1031D0004502709146026115710509F461C1909133
:1031E000420220914302892F82238F3F09F458C164
:1031F000A380B480F0904402F501E61BF70BFF209A
:1032000009F4FCC080914702382F307FE83CF1057B
:1032100008F0B2C0311179C0FE2C251323C09413DD
:1032200021C0E1101FC08F708061809347020E940F
:103230006018C6010E94BB1780914702F801858380
:103240008F2D61960FB6F894DEBF0FBECDBFDF9114
:10325000CF911F910F91FF90EF90DF90CF90BF9093
:10326000AF900895AB2829F0842F85238F3F09F074
:1032700033C180E0F82FF170DF2E80FF3CC08091D9
:1032800010022091110236E0821315C04D875E872F
:103290008D859E850E94281D292F22952F70223012
:1032A000F0F0243018F59F70F1F0F8019581907FCF
:1032B000D1F4D12C1EC090E0389FF001399FF00D61
:1032C0001124EE5EFD4F6181651306C060816413B9
:1032D00003C062816E110FC001968770D5CF9F70B9
:1032E00011F0882331F3805E883018F3C8010E9402
:1032F000BB17FD2CA5CFEE2009F4A2CF8091470289
:10330000816080934702F12C9BCF251306C0941354
:1033100004C0F801EE2009F48DC04D875E878D85CD
:103320009E850E941C18882319F1EE2009F18091D6
:103330004702803270F02091420230914302388778
:103340002F831986BB86AA868C87CE0107960E949A
:10335000BB1786E0F801A2E4B2E001900D928A95D5
:10336000E1F70E946E180E946018FF24F39468CF62
:10337000C8010E94BB17F9CF311113C07A2DB98A49
:10338000A88A6E2D89890E94201882E492E00E940A
:10339000BB1786E0F60111928A95E9F70E94601842
:1033A000B2CF25130FC094130DC0E1100BC0F8016C
:1033B0008583C8010E94BB1786E0F60111928A95A9
:1033C000E9F73ECF4D875E878D859E850E941C184C
:1033D000882371F2EE2061F280914702803208F476
:1033E000B8CF20914202309143023A8329831B8255
:1033F000BD82AC828E83CE010196A9CFE83CF10557
:1034000008F041C0FE2CEE2009F4B2CF25132AC0EB
:10341000941328C08091470280FD1BC0982F907F95
:10342000C1F0F8018583903F31F0982F907F905F35
:103430008F70892B8583C8010E94BB1786E0F80135
:10344000A2E4B2E001900D928A95E1F70E94601823
:10345000F7CE86E0F801A2E4B2E001900D928A95E1
:10346000E1F7EECE4D875E878D859E850E941C1804
:1034700081116FCF80914702816080934702C8011C
:103480000E94BB17DDCE7A2DB98AA88A6E2D898954
:103490000E94201886E0F60111928A95E9F7D6CFAE
:1034A000EE2009F465CF4D875E878D859E850E944D
:1034B0001C18F82E882309F45BCF86E0F801A2E4FB
:1034C000B2E001900D928A95E1F782E492E00E94C9
:1034D0007D140E946E18BACF81E08E25CBCE88EC89
:1034E00090E008951F93CF93DF93CDB7DEB72C976D
:1034F0000FB6F894DEBF0FBECDBF4F8358876987E4
:103500007A878B879C87CE0107960E94C4188823F0
:1035100069F08A859B85892B39F04F815885842FE6
:1035200085238F3F09F071C016E05FC086E0FE0181
:103530003796DE01119601900D928A95E1F78A8502
:103540009B85892B89F38F81988589238F3F61F330
:103550002091110230E0C9010196877099274091AE
:1035600010024817190671F40E94F91710921102FF
:103570001092100286E0E2E4F2E0DF011D928A95EB
:10358000E9F7D2CF96E0929FD001939FB00D11241E
:10359000AE5EBD4FFE01319601900D929A95E1F716
:1035A000809311020E943F18BFCF819FC001112458
:1035B0008E5E9D4F0E94C4188823E9F0E0911002AE
:1035C0001E9FF0011124EE5EFD4F4081518162810A
:1035D0007381848195810E942F188091100290E060
:1035E0000196877099278093100280911002909124
:1035F00011028913DACF2C960FB6F894DEBF0FBEF6
:10360000CDBFDF91CF911F91089569857A858B8514
:103610009C850E942F1888CFEF92FF920F931F93E3
:10362000CF93DF938C01892B81F0F12CEE24E3946E
:10363000E8012196F8018491843770F4843008F011
:103640005FC08130B1F08230A1F1DF91CF911F9145
:103650000F91FF90EF900895853709F44CC008F45E
:103660003DC09CE7980F903780F78F770E94141524
:1036700049C00E5F1F4FFE01849190E2980F983071
:1036800060F48770FE2D01C0FF0F8A95EAF78F2F37
:103690000E949E1D0E94C71D02C00E9482148F2D91
:1036A000815030F2EFE9FFE03197F1F700C0000000
:1036B000F7CF0E5F1F4FFE01849190E2980F983074
:1036C00050F48770FE2D01C0FF0F8A95EAF78F2F07
:1036D0000E94A41DDFCF0E941415E1CF0E5F1F4F83
:1036E000FE01C491C150D8F28FE99FE00197F1F734
:1036F00000C00000F7CF0E5F1F4FFE01F490CFCF48
:103700000E9482148E01CBCF08950C94841B0E94DA
:10371000851B60936A0270936B0280936C02909396
:103720006D020C94E31708950C94871B0F931F935D
:1037300000916A0210916B0220916C0230916D022F
:10374000602B712B822B932B1F910F910C94871B55
:103750000F931F9300916A0210916B0220916C02EB
:1037600030916D0260237123822393231F910F9167
:103770000C94871B0F931F9300916A0210916B02A8
:1037800020916C0230916D02602771278227932768
:103790001F910F910C94871B0C94841B0C94CC1BD1
:1037A0000E94CE1B6093660270936702809368024A
:1037B000909369020C94E31760E070E0CB010C94E5
:1037C000D01B0F931F9341E050E060E070E08A014E
:1037D0009B0104C0000F111F221F331F8A95D2F7CF
:1037E000C901B8011F910F910C94D01B0F931F9327
:1037F00041E050E060E070E004C0440F551F661FD8
:10380000771F8A95D2F78091660290916702A09106
:103810006802B09169028A019B01082B192B2A2B9F
:103820003B2BC901B8011F910F910C94D01B0F9332
:103830001F9341E050E060E070E004C0440F551F6A
:10384000661F771F8A95D2F7CB01BA0160957095F4
:103850008095909500916602109167022091680210
:103860003091690260237123822393231F910F916A
:103870000C94D01B0F931F9341E050E060E070E088
:1038800004C0440F551F661F771F8A95D2F7809199
:10389000660290916702A0916802B09169028A0164
:1038A0009B01082719272A273B27C901B8011F9127
:1038B0000F910C94D01B0F931F93009166021091EF
:1038C00067022091680230916902602B712B822B74
:1038D000932B1F910F910C94D01B0F931F9300916A
:1038E000660210916702209168023091690260239C
:1038F0007123822393231F910F910C94D01B0F935C
:103900001F93009166021091670220916802309126
:10391000690260277127822793271F910F910C94CA
:10392000D01B08952CE0929F800D1124982F977042
:1039300041E001C0440F9A95EAF7869586958695F1
:1039400095E0899FF0011124E85BFD4F90E080E055
:1039500070E05191DF0111979B01082E02C036954E
:1039600027950A94E2F721702195252724232527FE
:103970002C9301968530910561F708952CE0929F74
:10398000800D1124982F977086958695869525E051
:10399000829FF0011124E85BFD4F50E040E080E0A1
:1039A000219130E0092E02C0369527950A94E2F75E
:1039B00021703327042E01C0220F0A94EAF7822BCC
:1039C0004F5F5F4F4530510559F70895BF92CF9231
:1039D000DF92EF92FF920F931F93CF93DF938C01AF
:1039E000C0906602D0906702E0906802F090690291
:1039F00080916A0290916B02A0916C02B0916D026D
:103A0000C82AD92AEA2AFB2ACFE1D0E0BC2ED70166
:103A1000C6010C2E04C0B695A795979587950A9474
:103A2000D2F780FD0EC0219788F7B12C8B2DDF9146
:103A3000CF911F910F91FF90EF90DF90CF90BF90AB
:103A40000895B8018C2F0E944406019761F3EECFD0
:103A5000CF93DF93EC010E94E61CBE01DF91CF9172
:103A60000C9444061F93CF93DF93EB0190910F02C8
:103A7000992331F0CB01DF91CF911F910C94281D38
:103A8000882379F0CB010E94E61C182F682FCE0105
:103A90000E94921CBE01812FDF91CF911F910C9447
:103AA0004406CB010E94BE1C182FF4CF682F8091D2
:103AB0001701909118010C94731F682F80911701C2
:103AC000909118010C947E1F80911701909118011C
:103AD0000C94891F80916E02859585958595089532
:103AE00080916E028770089590916E02977081E0C8
:103AF00009F480E0089580919202089590919202D5
:103B0000892B809392020895809590919202982338
:103B100090939202089510929202089590919102CA
:103B2000892B80939102089580959091910298231A
:103B300090939102089510929102089590919002AD
:103B4000892B8093900208958095909190029823FC
:103B500090939002089510929002089580916F02C0
:103B6000089508950C94B11D90916F02981721F05B
:103B700080936F020C94B21D089580916F02882388
:103B800029F010926F0280E00C94B21D0895E0912C
:103B90001701F0911801809192028083E091170142
:103BA000F0911801808190919102892B8083E0919E
:103BB0001701F0911801808190919002892B8083E8
:103BC00090916F02992381F0E0911701F091180113
:103BD0008081892B808380911701909118010E9428
:103BE000DF1E81110E94BD1D809117019091180167
:103BF0000C94281308950C94FA1D98E0899F900165
:103C00001124622B60936E020E94F61B80916E025B
:103C10008595859585950C94FB1D10926E0280E02C
:103C20000C94FB1D90916E028095892380936E0207
:103C3000282F277071F4282F082E000C330B9217B1
:103C4000130639F08595859585950E94171C0C946F
:103C50000D1E089590E080E00E944E2C21E08C3EE5
:103C60009E4F09F020E0822F089582E090E00C94AE
:103C7000402C682F82E090E00C94542C83E090E07C
:103C80000C94402C682F83E090E00C94542CCF933C
:103C900084E090E00E94402CC82F81E290E00E94D6
:103CA000402C982F8C2FCF910895CF93C92F682F38
:103CB00084E090E00E94542C6C2F81E290E0CF9140
:103CC0000C94542CAB01BC018FE090E00C94662C5A
:103CD000AB01BC0183E190E00C94662C60E070E0E5
:103CE000CB010C94681E60E070E0CB010E94621E64
:103CF0000C946E1E6CEE7EEF90E080E00E94722CC1
:103D000060E082E090E00E94542C60E083E090E06C
:103D10000E94542C10926A0210926B0210926C0254
:103D200010926D0260E084E090E00E94542C60E00C
:103D300081E290E00E94542C60E085E090E00E94D7
:103D4000542C60E086E090E00E94542C6FEF87E0F6
:103D500090E00E94542C40E050E0BA0188E090E0EE
:103D60000E94662C60E08DE090E00E94542C40E0C0
:103D700050E0BA0188E190E00E94662C60E087E1A3
:103D800090E00E94542C40E050E0BA018CE190E0B9
:103D90000E94662C60E080E290E00E94542C40E09B
:103DA00050E0BA0188E190E00E94662C0C94731EEA
:103DB0000C947A1E682F8EE090E00C94542CFC0139
:103DC000329680912B01882321F08091F2029EE1AE
:103DD00087FF96E080E0915008F408952191222316
:103DE000D1F38F5FF8CF662301F120912B012223BD
:103DF000F1F02091F20227FF1AC0462F4695469512
:103E000046954E3190F4677021E030E002C0220FF9
:103E1000331F6A95E2F7840F911DFC01828190E0C7
:103E20002823392381E0232B69F480E00895FC01E5
:103E3000329608962191261721F0E817F907D1F755
:103E4000F4CF81E008959C01FC0132969FEF80E061
:103E50004191461751F09F3F19F4411101C0982F2D
:103E60008F5F8630A9F79F3F09F40895290F311D10
:103E700097FD3A95F90162830895FC013296089600
:103E80002191261303C0DF0111971C92E817F9074F
:103E9000B9F70895E62FE695E695E695EE3168F4D4
:103EA000E80FF92FF11D677021E030E001C0220F0B
:103EB0006A95EAF78281822B82830895E62FE69540
:103EC000E695E695EE3170F4E80FF92FF11D677075
:103ED00021E030E001C0220F6A95EAF72095828147
:103EE00028232283089520912B01222329F0209159
:103EF000F20227FD0C944A1F0C94231F20912B01E2
:103F0000222329F02091F20227FD0C945E1F0C94CD
:103F10003D1FFC01329680912B01882351F0809146
:103F2000F20287FF06C08EE1DF011D928A95E9F754
:103F3000089586E0F9CF089508950C949C1F0E947F
:103F40009D1F8091F802843049F11092940288E11B
:103F500090E020E40FB6F894A895809360000FBE1F
:103F60002093600080E00E941C060E949D1F83B782
:103F7000817F846083BF83B7816083BF7894889595
:103F800083B78E7F83BF0FB6F894A89580916000A9
:103F9000886180936000109260000FBE08950895BC
:103FA000CF930E949B1F0E949C080E94CF1FC0E0DD
:103FB0008C2F0E943908892B31F4CF5FC430C1F7B0
:103FC00080E0CF91089581E0FCCF08950C94E51F27
:103FD0000E94F9170E941C130E941C060C94E61FF5
:103FE0001F921FB61F9211248F939F93AF93BF937D
:103FF00080919402811113C08091EE029091EF02A2
:10400000A091F002B091F1024196A11DB11D8093E3
:10401000EE029093EF02A093F002B093F102BF91F1
:10402000AF919F918F911F901FBE1F90189582E0B6
:1040300084BD93E095BD9AEF97BD80936E0008957F
:104040002FB7F8948091EE029091EF02A091F002C8
:10405000B091F1022FBF08959C014FB7F894809161
:10406000EE029091EF02A091F002B091F1024FBFE9
:10407000821B930B089578941F921FB61F921124F0
:104080008F939F93AF93BF938091EE029091EF0235
:10409000A091F002B091F1020196A11DB11D809393
:1040A000EE029093EF02A093F002B093F102BF9161
:1040B000AF919F918F911F901FBE1F90189587E71A
:1040C00097E7909301088093000888E19AE00FB683
:1040D000F894A895809360000FBE90936000FFCF86
:1040E000AF92BF92CF92DF92EF92FF920F931F9306
:1040F000CF93C0E0CC24C394D12CE82EF12C8C2F8C
:104100000E9439085C0110E000E0C601002E02C0E8
:10411000880F991F0A94E2F78A219B21892B99F431
:104120000F5F1F4F0C30110581F7CF5FC43039F797
:1041300080E0CF911F910F91FF90EF90DF90CF9093
:10414000BF90AF900895602F7C2F80E00E942806DA
:10415000E816F90629F781E0ECCFCF93C82F8CE25F
:104160000E947020882321F08C2FCF910C94702016
:1041700080E0CF910895CF930E942A1E811102C042
:104180000E94D81EC5E608C00E949C088FE39CE9E7
:104190000197F1F700C00000C150B1F789E20E9419
:1041A000AD2081110BC18AE20E94AD2081110E94D5
:1041B000D81E85E00E94AD2081110E945F200E94E0
:1041C000351E8093930287E00E94AD20882371F012
:1041D0008BE10E94AD20882309F4CDC09091930219
:1041E000892F8D7F91FF826080939302809193024B
:1041F0000E94391E0E94471E9093F3028093F202A0
:1042000080EE0E94AD20882341F09091F202892F28
:104210008E7F90FF81608093F20289E30E94AD203F
:10422000882341F09091F202892F8D7F91FF826067
:104230008093F20282EE0E94AD20882341F090919B
:10424000F202892F8B7F92FF84608093F20286EEC8
:104250000E94AD20882341F09091F202892F877F40
:1042600093FF88608093F20283EE0E94AD20882342
:1042700041F09091F202892F8F7E94FF80618093AC
:10428000F20285E30E94AD20882341F09091F20272
:10429000892F8F7D95FF80628093F20281E30E94D7
:1042A000AD20882341F09091F202892F8F7B96FFF9
:1042B00080648093F20281E10E94AD20882341F066
:1042C0009091F202892F97FB87F980588093F20230
:1042D0008091F2029091F3020E94551E87E20E94A3
:1042E000AD20C82F8EE10E94AD208111C2608FE108
:1042F0000E94AD208111C46080E20E94AD20811136
:10430000C86081E20E94AD208111C06182E20E94FA
:10431000AD208111C06283E20E94AD208111C06492
:1043200084E20E94AD20882309F442C0C0688C2F2B
:104330000E94421E6C2F70E090E080E00E94941B6F
:1043400060916602709167028091680290916902A3
:104350000E94CE1B8FE00E94AD20882319F081E0DF
:104360000E94DA1E85E10E94AD20882339F180E0A9
:10437000CF910C94DA1E8EE00E94AD20882339F094
:1043800090919302892F8B7F92FF84602DCF80E1E3
:104390000E94AD2090919302882329F0892F877F76
:1043A00093FF886021CF892F8E7F90FF81601CCF83
:1043B000C111BDCF0E943E1E682FBDCFCF91089581
:1043C00080919B0280FF12C060911E0185E0689F72
:1043D000B0011124759567957595679560387105DD
:1043E000A8F561157105A1F1862F089581FF09C017
:1043F00060911E0185E0689FB00111247595679555
:10440000EDCF60911E0182FD0AC080919A0288233F
:10441000D1F090911D0160911E01891728F085E06F
:10442000689FB0011124DACF869FB001112485E086
:10443000869F9001879F300D1124692F70E0C9017C
:104440000E946A2BCBCF65E070E0CECF8FE7089556
:1044500081E0089580919B0280FF0CC060911A0159
:1044600070E075956795759567956115710549F1CA
:10447000862F089581FF06C060911A0170E075953E
:104480006795F3CF60911A0182FD0BC0909199025C
:104490009923A1F06091190180911A01961738F0C3
:1044A000682F70E06038710500F38FE70895899FE9
:1044B000C001112470E00E946A2BF4CF61E070E02B
:1044C000D7CF81E00895803F31F40E94E0218195AB
:1044D00080939F020895813F19F40E94E021F8CF54
:1044E000823F31F40E94E021819580939E020895DD
:1044F000833F19F40E94E021F8CF893F29F40E94FC
:104500002A228093A00208958A3F21F40E942A2241
:104510008195F7CF8B3F31F40E942A2281958093B9
:10452000A10208958C3F19F40E942A22F8CF843FFB
:1045300031F480919D02816080939D020895853FB2
:1045400021F480919D028260F7CF863F21F4809113
:104550009D028460F1CF873F21F480919D028860A5
:10456000EBCF883F21F480919D028061E5CF8D3FA4
:1045700031F480919B02816080939B0208958E3F6D
:1045800021F480919B028260F7CF8F3FB9F7809131
:104590009B028460F1CF90919E02803F59F48091FC
:1045A0009F0287FF0DC010929F0291110BC01092C5
:1045B0009A0208C0813F81F480919F0218169CF3F3
:1045C000992381F08091A0029091A102892B09F09A
:1045D00064C0109299020895823F49F497FFF0CF8A
:1045E00010929E0280919F028111ECCFE0CF833F19
:1045F00019F41916ACF3E4CF2091A002893F29F4F5
:104600001216F4F61092A002DBCF8A3F19F427FFAE
:10461000D7CFF8CF2091A1028B3F29F427FFD0CF2D
:104620001092A102CDCF8C3F19F41216CCF3C8CF53
:10463000843F31F480919D028E7F80939D02C0CF94
:10464000853F21F480919D028D7FF7CF863F21F435
:1046500080919D028B7FF1CF873F21F480919D0255
:10466000877FEBCF883F21F480919D028F7EE5CF3D
:104670008D3F31F480919B028E7F80939B02A0CF6F
:104680008E3F21F480919B028D7FF7CF8F3F09F001
:1046900097CF80919B028B7FF0CF08950E942020BE
:1046A0009C0190919E0280919F02982B21F0309363
:1046B0009802209397029091A0028091A102982BDA
:1046C00021F030939602209395028CE992E00C94AD
:1046D0004213EF92FF920F931F93CF93DF9300D07B
:1046E00000D000D0CDB7DEB786E0ECE9F2E0DE0125
:1046F000119601900D928A95E1F7E0909E02F0905C
:104700009F020091A0021091A10210929E021092AD
:104710009F021092A0021092A1028E2D8F2991F07B
:1047200080919702909198020E942C20AC01909168
:104730009A02992309F43FC080911F01841715063E
:1047400008F447C0802F812B91F0809195029091C1
:1047500096020E942C20AC0190919902992309F4B1
:1047600077C080911B018417150608F47FC08091E3
:104770009E0290919F02892B9091A002892B90918B
:10478000A102892B11F00E944E2386E0FE01319692
:10479000ACE9B2E001900D928A95E1F726960FB64A
:1047A000F894DEBF0FBECDBFDF91CF911F910F9167
:1047B000FF90EF900895209120018AE0289F9001BA
:1047C00011242417350708F0BDCF9F5F90939A02FC
:1047D00002C09F3FD1F7EE2059F00E94E0219FEFE9
:1047E0001E140CF491E0899F802D112480939E0269
:1047F000FF2059F00E94E0219FEF1F140CF491E07C
:10480000899F802D112480939F0230919E02332333
:1048100009F498CF20919F02222309F493CF45EB0E
:104820003403C0011124992359F090939E0245EB63
:10483000240390011124332339F030939F0282CF57
:1048400081E080939E02F3CF81E080939F027ACF34
:1048500020911C018AE0289F90011124241735071C
:1048600008F085CF9F5F9093990202C09F3FD1F7D8
:10487000002359F00E942A229FEF10160CF491E0B9
:10488000899F802D11248093A002112359F00E944A
:104890002A229FEF11160CF491E0899F802D11249C
:1048A0008093A1023091A002332309F460CF2091BC
:1048B000A102222309F45BCF45EB3403C00111248C
:1048C000992359F09093A00245EB24039001112401
:1048D000332339F03093A1024ACF81E08093A002C4
:1048E000F3CF81E08093A10242CF86E0ECE9F2E0D1
:1048F000DF011D928A95E9F710929A0210929902AF
:1049000010929B0208958091C2020895CF93DF9385
:1049100000D00F92CDB7DEB79091F802943019F520
:1049200089837B836A8382E08093E9008FEF909193
:10493000E800815095FD06C095ED9A95F1F70000CD
:104940008111F5CF8091E80085FF0DC050E040E077
:1049500063E070E0CE0101960E94AB268091E800F2
:104960008E778093E8000F900F900F90DF91CF919A
:104970000895BC0184E00C948624BC0183E00C946F
:1049800086249C0182E08093E9009FEF8091E800FB
:10499000915085FD06C085ED8A95F1F700009111D3
:1049A000F5CF8091E80085FF0CC050E040E066E064
:1049B00070E0C9010E94AB268091E8008E77809359
:1049C000E8000895CF93DF93EC0180912B018823B9
:1049D000B1F18091F20287FF32C060E282E0809301
:1049E000E9008FEF9091E800815095FD06C095EDAC
:1049F0009A95F1F700008111F5CF8091E80085FFCD
:104A00001BC080912B0170E050E040E0811104C098
:104A100050E040E068E070E0CE010E94AB2680915B
:104A2000E8008E778093E80080E2FE01A2EAB2E01F
:104A300001900D928A95E1F7DF91CF91089568E09A
:104A400081E0CDCF8091F702811109C00E943B28FF
:104A50000E9498288091E20084608093E20008958B
:104A60001092F7020895089508950C94E81F42E00B
:104A700061EC81E00E94B72742E261EC82E00C9495
:104A8000B7278091FA02833009F45FC030F4813097
:104A9000C1F1823009F49BC008958A3009F487C0BF
:104AA0008B3009F46DC0893009F04EC08091F90255
:104AB000813209F049C08091FD029091FE02029777
:104AC00008F042C08091E800877F8093E8008091E1
:104AD000E80082FF35C09091F3008091F2000297C8
:104AE00029F48091F1008B7F813021F48091F100D5
:104AF0008093C2028091E8008B778093E8000C9449
:104B0000EB278091F902813AF9F48091E800877FE0
:104B10008093E8008091FD029091FE02892B61F460
:104B200060E282EA92E070E00E94FA268091E8005A
:104B30008B778093E800089560E090E080E0F3CF09
:104B40008091F8028111C3CF08958091F902813AD2
:104B5000D9F78091FD029091FE02892BA9F78091EF
:104B6000E800877F8093E8008091E80080FFFCCF19
:104B700080912B018093F1008091E8008E77BDCF6A
:104B80008091F902813201F78091FD029091FE023D
:104B9000892BD1F68091E800877F8093E8000E94FE
:104BA000EB278091FB0280932B010C94F9178091E5
:104BB000F902813249F68091E800877F8093E8000E
:104BC0000E94EB278091FC028093C302089580919C
:104BD000F902813A09F0B8CF8091E800877F80938D
:104BE000E8008091E80080FFFCCF8091C302C2CF33
:104BF00084B7877F84BF0FB6F894A8958091600032
:104C0000886180936000109260000FBE80E890E0A1
:104C10000FB6F89480936100909361000FBE0E94DC
:104C20008A130E943B280E9498288091E2008460A9
:104C30008093E20078940E94212B0E94961381E2D7
:104C400091E00E9417138091F802853039F00E949C
:104C5000A0130E9494130E949513F5CF0E949F1FEA
:104C60008091F602882379F30E94D01F882359F39C
:104C70000E949526E8CF0C943D26292F3327233018
:104C8000310519F168F42130310509F444C02230AE
:104C9000310509F445C090E080E030E020E025C017
:104CA0002132310549F122323105A9F780E490E043
:104CB0002FEF39E061157105C1F08CEB90E023E432
:104CC00039E06130710589F0E6CF9927813091058F
:104CD00081F0009729F00297F1F6E6ECF8E002C0C7
:104CE000E2EFF8E0849190E09F01FA0131832083A4
:104CF0000895EAEDF8E0F6CF89E090E028E039E0A9
:104D00006115710591F389E090E021E239E06130AD
:104D1000710559F3C0CF82E190E021E339E0E5CF9E
:104D20008BE390E026EF38E0E0CF80E189BD82E1BF
:104D300089BD09B400FEFDCF8091D8008F7D80939E
:104D4000D8008091E00082608093E0008091E000D4
:104D500081FDFCCF0895AF92BF92CF92DF92FF9278
:104D60000F931F93CF93DF936C01EB018A010E9495
:104D70000A28F82E811123C00115110539F0F80118
:104D800080819181C81BD90BC80ED91EB12CA12CD2
:104D90002097A9F08091E80085FD22C08091E8006D
:104DA0008E778093E80001151105A1F0F80180814C
:104DB0009181A80EB91EB182A08285E0F82E8F2DB8
:104DC000DF91CF911F910F91FF90DF90CF90BF9017
:104DD000AF9008950E940A288823D1F2F82EEFCFD1
:104DE000F60181916F018093F1002197FFEFAF1AD7
:104DF000BF0ACECFFC018091FF029091000386177D
:104E00009707A0F06115710529F49091E8009E774D
:104E10009093E80090E06115710551F4911108C07C
:104E20008091E80082FF34C080E00895BC01F2CF99
:104E30008091F8028823C1F18530C1F18091E800AA
:104E400083FD30C08091E80082FDEACF8091E800C8
:104E500080FFE1CF8091F3002091F200382F61159F
:104E6000710519F02830310558F091E028303105EE
:104E700009F090E02091E8002E772093E800CBCF56
:104E800081918093F100615071092F5F3F4FE7CF0F
:104E90008091F802882341F0853041F08091E8004C
:104EA00083FFBECF81E0089582E0089583E00895F6
:104EB000FC018091FF029091000386179707A0F0F4
:104EC0006115710529F48091E8008E778093E800E0
:104ED00090E06115710551F4911108C08091E800CE
:104EE00082FF35C080E00895BC01F2CF8091F802C6
:104EF0008823C9F18530C9F18091E80083FD31C074
:104F00008091E80082FDEACF8091E80080FFE1CF48
:104F10008091F3002091F200382F6115710519F08E
:104F20002830310558F091E02830310509F090E043
:104F30008091E8008E778093E800CBCF84918093B6
:104F4000F1003196615071092F5F3F4FE6CF80919C
:104F5000F802882341F0853041F08091E80083FF1A
:104F6000BDCF81E0089582E0089583E00895982FF1
:104F7000973028F08F708093E90081E00895909336
:104F8000E900242F762F50E0981731F07091EC0053
:104F90002091ED005091F00021FD02C09F5FE8CF0D
:104FA0003091EB003E7F3093EB003091ED003D7F80
:104FB0003093ED003091EB0031603093EB00709353
:104FC000EC002093ED005093F0002091EE0027FDBF
:104FD000E5CF80E008958091F90287FF13C08091AA
:104FE000E80082FF06C08091E8008B778093E8009C
:104FF00004C08091F8028111F2CF08958091F802E7
:105000008823D9F38091E80080FFF8CF8091E800F1
:105010008E77ECCF2091E4003091E50095E6A90170
:105020002091EC00822F817020FF06C08091E80063
:1050300080FF06C080E008952091E80022FD1AC09C
:105040008091F802882389F0853089F08091EB0007
:1050500085FD0FC02091E4003091E5004217530711
:10506000F9F29150E1F684E0089582E0089583E03A
:10507000089581E008950E94A9280E94B128E0EED9
:10508000F0E0808181608083E8EDF0E080818F77BF
:10509000808319BCA7EDB0E08C918E7F8C938081CA
:1050A0008F7E80831092F70208950F931F93CF9302
:1050B000DF930E94A9280E94B128C8EDD0E0888122
:1050C0008F77888388818068888388818F7D8883B3
:1050D00019BC1092F8021092F4021092F60210928B
:1050E000F50200EE10E0F80180818B7F80838881DB
:1050F0008160888342E060E080E00E94B727E1EEB3
:10510000F0E080818E7F8083E2EEF0E0808181603C
:105110008083808188608083F80180818E7F808396
:10512000888180618883DF91CF911F910F910895CD
:10513000E8EDF0E080818F7E8083E7EDF0E0808114
:105140008160808384E082BF81E08093F7020C94C9
:105150005528E8EDF0E080818E7F80831092E20098
:1051600008951092DA001092E10008951F920F92B4
:105170000FB60F9211242F933F934F935F936F932A
:105180007F938F939F93AF93BF93EF93FF93809100
:10519000E10082FF0BC08091E20082FF07C0809196
:1051A000E1008B7F8093E1000E94202B8091DA0048
:1051B00080FF19C08091D80080FF15C08091DA006F
:1051C0008E7F8093DA008091D90080FF96C080E1C5
:1051D00089BD82E189BD09B400FEFDCF81E08093E5
:1051E000F8020E9422258091E10080FF19C0809181
:1051F000E20080FF15C08091E2008E7F8093E20084
:105200008091E20080618093E2008091D80080620A
:105210008093D80019BC85E08093F8020E94342561
:105220008091E10084FF2BC08091E20084FF27C0C1
:1052300080E189BD82E189BD89B5982F917080FF99
:10524000FBCF8091D8008F7D8093D8008091E100C2
:105250008F7E8093E1008091E2008F7E8093E20058
:105260008091E20081608093E2008091F4028823C3
:1052700009F449C084E08093F8020E9435258091AA
:10528000E10083FF29C08091E20083FF25C0809167
:10529000E100877F8093E10082E08093F802109222
:1052A000F4028091E1008E7F8093E1008091E20022
:1052B0008E7F8093E2008091E20080618093E20023
:1052C00042E060E080E00E94B7278091F0008860B3
:1052D0008093F0000E943325FF91EF91BF91AF9131
:1052E0009F918F917F916F915F914F913F912F91FE
:1052F0000F900FBE0F901F90189519BC1092F802D6
:105300000E94302570CF8091E30087FD93E0909359
:10531000F802B3CF1F920F920FB60F9211242F9362
:105320003F934F935F936F937F938F939F93AF932D
:10533000BF93CF93DF93EF93FF93D091E900DF709A
:105340008091EC00C82FC17080FDC0E81092E90088
:105350008091F000877F8093F00078940E94CE299E
:105360001092E9008091F00088608093F000CD2BCE
:10537000CF70C093E900FF91EF91DF91CF91BF9182
:10538000AF919F918F917F916F915F914F913F91DD
:105390002F910F900FBE0F901F9018951F93CF93D2
:1053A000DF93CDB7DEB7AA970FB6F894DEBF0FBE76
:1053B000CDBF89EF92E02091F100FC012193CF0154
:1053C000F3E081309F07B9F70E9441258091E80002
:1053D00083FF1EC18091F9029091FA029A3008F081
:1053E00017C1E92FF0E0E552F34D0C94A02B803863
:1053F00099F0823809F00CC18091FD028F708730DE
:1054000008F006C18093E9008091EB0085FB8827B6
:1054100080F91092E90006C08091F5029091F602A1
:10542000911182609091E800977F9093E8008093BB
:10543000F1001092F1008091E8008E77E5C088239A
:1054400009F4D3C0823009F0E3C08091FB028111DE
:10545000D6C08091FD028F702FEF280F263008F004
:10546000D7C08093E9002091EB0020FFC8C09330A3
:1054700031F48091EB0080628093EB00C0C090918A
:10548000EB0090619093EB0021E030E001C0220F2F
:105490008A95EAF72093EA001092EA008091EB00E7
:1054A0008860EACF8111B4C01091FB021F77809110
:1054B000E3008078812B8093E3008091E800877F70
:1054C0008093E8000E94EB278091E80080FFFCCFEA
:1054D0008091E30080688093E30082E0111183E013
:1054E0008093F80295C08058823008F091C0809176
:1054F000FB029091FC028C3D23E09207A1F583E032
:105500008A838AE289834FB7F894DE01139620E0FC
:105510003EE051E2E32FF0E050935700E49120FF8A
:1055200003C0E295EF703F5FEF708E2F90E0EA309E
:10553000C0F0C7968D939D932F5F243159F74FBFCD
:105540008091E800877F8093E8006AE270E0CE01F6
:1055500001960E94FA268091E8008B778093E800FC
:1055600057C0C096E7CF6091FD027091FE02AE0178
:105570004F5F5F4F0E943B26BC01892B09F448C056
:105580009091E800977F9093E80089819A810E942A
:105590005827E1CF8038E1F58091E800877F80933C
:1055A000E8008091F4028093F10045CF811130C072
:1055B0009091FB02923060F58091E800877F8093A4
:1055C000E8009093F4020E94EB278091F402882374
:1055D00011F084E005C08091E30087FDFACF81E0FF
:1055E0008093F8020E94372513C08091FB0281301E
:1055F00079F481E0933009F080E08093F602109214
:10560000E9008091E800877F8093E8000E94EB2703
:105610008091E80083FF0AC08091E800877F809333
:10562000E8008091EB0080628093EB00AA960FB6B1
:10563000F894DEBF0FBECDBFDF91CF911F910895CB
:105640000895CF938091F8028823A1F0C091E900DA
:10565000CF709091EC00892F817090FD80E8C82B6D
:105660001092E9008091E80083FD0E94CE29CF705E
:10567000C093E900CF910895991B79E004C0991F68
:10568000961708F0961B881F7A95C9F7809508959C
:1056900087FB082E062687FD819567FD61950E9490
:1056A0003C2B0EF4919507FC81950895AA1BBB1B1A
:1056B00051E107C0AA1FBB1FA617B70710F0A61B12
:1056C000B70B881F991F5A95A9F780959095BC0133
:1056D000CD01089597FB072E16F4009407D077FDAF
:1056E00009D00E94562B07FC05D03EF49095819579
:1056F0009F4F0895709561957F4F0895A1E21A2EEE
:10570000AA1BBB1BFD010DC0AA1FBB1FEE1FFF1F65
:10571000A217B307E407F50720F0A21BB30BE40BB5
:10572000F50B661F771F881F991F1A9469F76095FC
:105730007095809590959B01AC01BD01CF010895B6
:10574000EE0FFF1F0590F491E02D09940E94AE2BFF
:10575000332312F48A1B9B0B0C94BF2BA29FB00126
:10576000B39FC001A39F700D811D1124911DB29F95
:10577000700D811D1124911D08950E94AE2BB7FF5D
:105780000895821B930B08950E94AE2BA59F900D48
:10579000B49F900DA49F800D911D11240895B7FF13
:1057A0000C94C42B0E94C42B821B930B08958F92E0
:1057B0009F92AF92BF92CF92DF92EF92FF92CF93E0
:1057C000DF93EC01688179818A819B816115710584
:1057D0008105910521F464E279ED8BE597E02DE1F7
:1057E00033EF41E050E00E94882C49015A019B01AF
:1057F000AC01A7EAB1E40E94C42B6B017C01ACEEC2
:10580000B4EFA50194010E94D22BDC01CB018C0DD9
:105810009D1DAE1DBF1DB7FF03C00197A109B04874
:1058200088839983AA83BB839F77DF91CF91FF9071
:10583000EF90DF90CF90BF90AF909F908F900895A2
:105840000E94D72B089580E091E00E94D72B089505
:10585000B0E0A0E08093000190930101A0930201C9
:10586000B09303010895FC014150504030F0019085
:105870000616D1F73197CF01089588279927089503
:10588000F999FECF92BD81BDF89A992780B5089508
:10589000A6E1B0E044E050E00C947A2CA8E1B0E03E
:1058A00042E050E00C947A2C262FF999FECF92BD5D
:1058B00081BDF89A019700B4021639F01FBA20BDD5
:1058C0000FB6F894FA9AF99A0FBE08950396272F07
:1058D0000E94552C0E94542C252F0E94552C242FB9
:1058E0000C94552C0196272F0E94552C0C94542C67
:1058F000DC01CB01FC01F999FECF06C0F2BDE1BD90
:10590000F89A319600B40D9241505040B8F708957E
:10591000052E97FB1EF400940E949F2C57FD07D084
:105920000E947E2B07FC03D04EF40C949F2C5095C4
:105930004095309521953F4F4F4F5F4F089590957B
:105940008095709561957F4F8F4F9F4F0895F89484
:10595000FFCF67106F1076107B10801085108A10B3
:105960008F10941099109E10A310A710AC10AF10B8
:10597000B210B510B810BA10BD10C215C2151A1663
:105980001A166C168816EF15EF1593161F172E179B
:105990002E178A17EF15EF15931708180818111806
:1059A00011181318111811181118081808181818B8
:1059B000111811181818F7291F2A082B1F2A082B4D
:0A59C000522A732A082BCA2AD62A9D
:1059CA0001000000010102000700070701191A1B64
:1059DA001C1D1E1F20212270022808641E140A3270
:1059EA001E8324E224C124BD24B92401E200E90073
:1059FA00EA00B500B600B700CD008301CC008A01E9
:105A0A00920194012102230224022502260227027E
:105A1A002A02B300B4006F007000818283313332EE
:105A2A00363534C69766949091F4F5F6F70001027C
:105A3A000202020606060909090909090F0F0F0FD2
:105A4A000F0F1515151819191919191919191919DD
:105A5A002324252525252525E200E900EA00B500AD
:105A6A00B600B700CD008301CC008A0192019401EF
:105A7A002102230224022502260227022A02B30057
:0A5A8A00B4006F00700081828300F9
:00000001FF
