:100000000C9440030C9487030C9487030C9487038F
:100010000C9487030C9487030C9487030C94870338
:100020000C9487030C9487030C94D6260C94AA276F
:100030000C94101E0C9487030C9487030C94870374
:100040000C9487030C9487030C9487030C94870308
:100050000C9487030C945B1E0C9487030C94870309
:100060000C9487030C9487030C9487030C948703E8
:100070000C9487030C9487030C9487030C948703D8
:100080000C9487030C9487030C9487030C948703C8
:100090000C9487030C9487030C9487030C948703B8
:1000A0000C9487030C9487030C9487032900140095
:1000B0001A000800150017001C0018000C001200A0
:1000C00013002A002B0004001600070009000A0094
:1000D0000B000D000E000F0000002800E1001D00C5
:1000E0001B00060019000500025111001000360027
:1000F0003700E5000000E000E20000002C4501515F
:1001000000002C4400000351E300000035004A00C9
:1001100052004D004B0049000100010001002F007A
:10012000300001000100500051004F004E004C0013
:100130000100010033003400000001000100010053
:100140000100010001000100010001000100310077
:100150003800010000000100010000000100010062
:1001600000000100000001000100000001003A0051
:100170003B003C003D003E003F004000410042008B
:1001800043000100390046004700480053000100C9
:100190000100010044004500000001000100C35CB3
:1001A000C45CC65CC85CCA5C0100010001000100BF
:1001B000005C0100000001000100000001000100DE
:1001C00000000100000001000100000001001E000D
:1001D0001F0020002100220023002400250026000B
:1001E00027000100010001000100010001000100E1
:1001F000010001002D002E0000000100010001009F
:1002000001000100010001000100010001000100E6
:1002100001000100000001000100000001000100D8
:1002200000000100000001000100000001001E02AA
:100230001F0220022102220223022402250226029A
:10024000270201000100010001000100010001007E
:10025000010001002D022E0200000100010001003A
:100260000100010001000100010001000100010086
:100270000100010000000100010000000100010078
:100280000000010000000100010000000100010069
:10029000F000010001000100F9000100010001006F
:1002A000010001000100F200F100F3000100010073
:1002B000FA00F400F5000100000001000100010057
:1002C0000100010001000100010001000100010026
:1002D0000100010000000100010000000100010018
:1002E00000000100000001000100000032190A00B6
:1002F000047F3F1F643214643214783C1E1E140ABB
:10030000052223252628292A2C2D2F303233353655
:10031000383A3B3D3E4042434547494A4C4E505196
:10032000535557595A5C5E6062646668696B6D6FBD
:1003300071737577797B7D7F81838587898A8C8EC0
:1003400090929496989A9C9E9FA1A3A5A7A8AAACC8
:10035000AEAFB1B3B4B6B8B9BBBCBEBFC1C2C3C502
:10036000C6C7C9CACBCCCDCED0D1D2D2D3D4D5D6A4
:10037000D7D7D8D9D9DADADBDBDBDCDCDCDCDCDDD7
:10038000DDDDDDDCDCDCDCDCDBDBDBDADAD9D9D8BB
:10039000D7D7D6D5D4D3D2D2D1D0CECDCCCBCAC953
:1003A000C7C6C5C3C2C1BFBEBCBBB9B8B6B4B3B182
:1003B000AFAEACAAA8A7A5A3A19F9E9C9A9896941D
:1003C00092908E8C8A89878583817F7D7B797775F2
:1003D00073716F6D6B6968666462605E5C5A5957D1
:1003E000555351504E4C4A4947454342403E3D3B90
:1003F0003A3836353332302F2D2C2A29282625231A
:1004000022FFAA7F55400001010101010101010104
:1004100002020202020202020203030303030303B5
:100420000304040404040404050505050506060682
:100430000606070707070708080808090909090A3F
:100440000A0A0B0B0B0C0C0C0D0D0D0E0E0E0F0FE4
:100450000F10101111111212131314141515161672
:100460001717181819191A1A1B1B1C1D1D1E1E1FE1
:100470002020212222232424252626272829292A30
:100480002B2C2D2D2E2F3031323233343536373858
:10049000393A3B3C3D3E3F40414243444546474854
:1004A000494A4C4D4E4F50515354555658595A5B2A
:1004B0005D5E5F616264656668696B6C6D6F7072CA
:1004C000737577787A7B7D7E8082838587888A8C36
:1004D0008E8F91939596989A9C9EA0A2A3A5A7A96A
:1004E000ABADAFB1B3B5B7BABCBEC0C2C4C6C9CB61
:1004F000CDCFD1D4D6D8DBDDDFE2E4E7E9EBEEF017
:10050000F3F5F8FAFDFF12036B0065007900620055
:100510006F006100720064000000160371006D003E
:100520006B006200750069006C0064006500720079
:1005300000000403090409023B00020100A0FA09BB
:100540000400000103010100092111010001224002
:10055000000705810308000A0904010001030000E7
:100560000009211101000122BC00070582032000BF
:100570000A1201100100000008EDFE606001000198
:1005800002000105010902A10185020901A100057E
:1005900009190129051500250195057501810295A7
:1005A00001750381010501093009311581257F9508
:1005B000027508810609381581257F950175088126
:1005C00006050C0A38021581257F950175088106FC
:1005D000C0C005010980A101850319012AB70015D2
:1005E0000126B700950175108100C0050C0901A115
:1005F00001850419012AA002150126A002950175A2
:10060000108100C005010906A1018505050719E053
:1006100029E71500250195087501810205071900D4
:1006200029EF1500250195F07501810205081901D2
:100630002905950575019102950175039101C00584
:10064000010906A101050719E029E7150025019513
:1006500008750181029501750881010507190029B6
:10066000FF150026FF009506750881000508190191
:100670002905950575019102950175039101C00049
:1006800011241FBECFEFDAE0DEBFCDBF04B603FEFC
:1006900027C08091010390910203A0910303B091C0
:1006A00004038730904BA740B04BD1F41092010364
:1006B00010920203109203031092040314BE84B735
:1006C000877F84BF0FB6F894A895809160008861F9
:1006D00080936000109260000FBEE0E0F8E309959F
:1006E00011E0A0E0B1E0EAE0F6E502C005900D926D
:1006F000A83CB107D9F723E0A8ECB1E001C01D92F6
:10070000A130B207E1F70E9418240C94C72A0C9478
:10071000000081E0089581E008950C948B03089512
:100720000C948F031F93CF93DF9300D000D00F92D0
:10073000CDB7DEB749835A836B8330910D0289812F
:100740009A8131111DC06623B9F02223A9F00E94BD
:10075000061B182F682F89819A810E94B21A69811D
:100760007A81812F0F900F900F900F900F90DF9153
:10077000CF911F910C9448040E94DE1A182FEFCFDE
:100780000E94061B69817A81EDCFFC01262F4081F2
:1007900051816281738184810C949203CF93DF93A2
:1007A000EC0160E00E94C503BE01DF91CF910C9483
:1007B00090030E944A1C811102C00E94F81C0C94F4
:1007C00054060C94570608950E9419160E94E303DC
:1007D0002FEF84E39CE0215080409040E1F700C07F
:1007E00000000C947F1E0F931F93CF93DF93EC01B7
:1007F00061E00E94C5038C01BE010E948D03882325
:1008000059F1BE01C8010E94980F882329F1BE0149
:10081000C8010E94EA0F8823F9F0BE01C8010E94B6
:100820000D118823C9F0BE01C8010E94710E8823F2
:1008300099F08A81882339F001158CE5180751F069
:100840000F3D1C4579F0CE01DF91CF911F910F91A3
:100850000C9489030E94E40380E0DF91CF911F9103
:100860000F9108950E94F81CF7CF08950C94350459
:1008700081E008950C943804CF93C82F0E94360469
:100880008C2FCF910C943A0490E080E00895089565
:10089000972F70E02CE0929F600D711D1124FB01D9
:1008A00090E3899FE00DF11D1124EE0FFF1FE45529
:1008B000FF4F859194910895FC01EE0FFF1FE451C5
:1008C000FD4F859194910895CF93DF930E94480442
:1008D0000E947905EC01811520E5920708F042C0DD
:1008E000811530E4930708F0BDC0883E910528F5D6
:1008F000803E910508F09DC0883A910588F4853ABC
:10090000910508F08FC08130910509F492C00097DD
:1009100009F48FC0049708F08CC0D0E0C0E089C013
:100920008F3B910508F489C0805C9109C03CD105DA
:10093000A0F30E945C04EC017CC08115904250F44D
:10094000C11581E0D80708F074C0C03FD10528F375
:10095000D0656FC0C11590E3D90708F079C0CE010A
:100960009F70E7CF811525E5920758F5811534E58D
:10097000930708F0A6C0811542E5940750F4C1150D
:1009800081E5D80708F471C0DC2FCC27C16FD06A8D
:1009900050C0982F969596959E0123703327C115C8
:1009A000D34508F07FC0C1E0D0E002C0CC0FDD1F0E
:1009B0002A95E2F720E2929FC0011124C82BD92B7F
:1009C0006FC0C11589E5D807A8F4C11598E5D90706
:1009D00008F07CC0C11526E5D20708F09ECF8C2F09
:1009E0000E941006C82FD0E0DC2FCC27CC27DF7167
:1009F000D0621FC0C1153AE5D30708F46CC0CE0120
:100A000090568115904208F088CF8D2F8F710E94EB
:100A1000100690E0982F882788279F719C012C2B27
:100A2000E901E6CFC55AD0E0C85ADE4FC881D0E010
:100A3000D064CE01DF91CF910895C85AD0E0CC0F99
:100A4000DD1FC65DDE4F0990D881C02DD464F1CF83
:100A5000CE019927D3FF03C0EC01D86CEACFEC019B
:100A6000D06CE7CFDF70D06AE4CFCE01E4E096959A
:100A70008795EA95E1F783702C2F269526952370AC
:100A800090E2299F90011124382B8C2F8370C1E0B4
:100A9000D0E002C0CC0FDD1F8A95E2F7C22BD32B2A
:100AA000DC68C7CFC1E0D0E002C0CC0FDD1F2A95C3
:100AB000E2F730E2939FC0011124C82BD92BDA68EA
:100AC000B8CFD82FCC27C46FD06AB3CFDC2FCC27B8
:100AD000C06FD06AAECF8C2F8F700E94100634E0AA
:100AE000D695C7953A95E1F7CF709C2FEC01D06968
:100AF000A0CF82389105B1F1B0F48133910509F4AA
:100B000075C048F48932910509F469C08A329105AB
:100B100009F473C008958533910509F459C08933E8
:100B2000910501F10895833E9105A9F138F4803EC5
:100B30009105F9F0823E910549F10895863E9105AF
:100B4000A9F1873E9105C9F1843E910519F52091DF
:100B5000F30221FF1FC08091F20284FD14C087EED2
:100B600090E008952091F2022370A1F080EE90E0D1
:100B700008952091F20220FD47C03091F30230FF2A
:100B800009C024FF44C090E080E004C02091F2023C
:100B900022FDF7CF08952091F20222FD3BC0309153
:100BA000F30230FDE3CF24FFF5CFEDCF2091F20229
:100BB00023FFF0CF24FDE7CFD2CF2091F20223FD17
:100BC0002CC03091F30231FFEECF84EE90E0089517
:100BD0002091F20225FFDECF89E290E00895209176
:100BE000F20225FFD7CF85E390E008952091F2022D
:100BF00026FFD0CF8AE290E008952091F20226FFEE
:100C0000C9CF81E390E0089589E390E0089583EEF1
:100C100090E0089582EE90E0089586EE90E00895C9
:100C20009091F20292FF06C0282F28712830F9F423
:100C3000877F846093FF06C0282F28712831F1F444
:100C4000877E84612091F30220FF06C0382F38711F
:100C50003830D9F4877F816021FF06C0282F2871A2
:100C60002831D1F4877E816194FD877E0895282FF5
:100C700024712430F9F68B7F8860DCCF282F247113
:100C8000243101F78B7E8861DDCF382F317131300F
:100C900019F78E7F8860E0CF282F2171213121F74D
:100CA0008E7E8861E1CF08950C94530608950C94CC
:100CB0005606E82FF0E0EE0FFF1FE453FD4F808152
:100CC00091810895089580EA8A95F1F70895F8943E
:100CD000E82FE295EF70F0E031A1282F2F7081E02E
:100CE00090E001C0880F2A95EAF7982F90959323FA
:100CF00091A392A1892B82A378940895CF93DF9337
:100D000084EF0E94670685EF0E94670686EF0E94C7
:100D1000670687EF0E946706CBE5D1E089910E94C4
:100D2000670681E0C736D807C9F71092C50210924E
:100D3000C4021092CD021092CC021092C7021092FF
:100D4000C6021092CF021092CE021092C9021092E7
:100D5000C8021092D1021092D0021092CB021092CF
:100D6000CA021092D3021092D20284E00E943A0783
:100D7000DF91CF910C94D903AF92BF92DF92EF92A3
:100D8000FF920F931F93CF93DF93C7E6D1E004EC5C
:100D900012E0D12CEE24E394F12C8991F894E82F01
:100DA000E295EF70F0E021A18F70A70102C0440F1F
:100DB000551F8A95E2F7CA01922F982B91A392A111
:100DC0008095892382A378940E946306EBE5F1E085
:100DD00030E020E0B12CA12C4191A42FA295AF705E
:100DE000B0E090968C9190E04F7002C095958795F9
:100DF0004A95E2F780FD39C0C701022E02C0880F74
:100E0000991F0A94E2F7A82AB92A2F5F3F4F2C3086
:100E1000310511F7FE01319780810E946706F801C4
:100E200080819181A816B90619F1B182A08281E072
:100E3000D82A0E5F1F4FF1E0CB36DF0709F0ADCFA8
:100E40002D2D44E06CEC72E084EC92E00E943B07B4
:100E50000E94E1038D2DDF91CF911F910F91FF90A3
:100E6000EF90DF90BF90AF90089590E080E0CBCFFF
:100E700080E0DECF0895FF920F931F93CF93DF930F
:100E8000F82E092F162FD72FC42F222349F081E0E7
:100E90008093CA010E94401E9093C9018093C801AB
:100EA0008091CA018823A1F08091C8019091C90165
:100EB0000E944C1E069760F0EF2DF02FA12FBD2F42
:100EC00090E080E0D0E08C179D0744F01092CA01BA
:100ED000DF91CF911F910F91FF9008952191319152
:100EE0002D933D930196EFCFEF92FF920F931F93B7
:100EF000CF93DF93EB01E82FD11110C0442321F0F1
:100F0000F0E0EA5FFB4FE4916E2F7E2F8E2FDF9192
:100F1000CF911F910F91FF90EF9008950D2F10E04A
:100F2000282F30E0442329F02A5F3B4FF901249118
:100F300030E0F6E0CF9FC0011124EFEFF0E0BF01F9
:100F40000E947629AB018C2F90E0880F991FA5E5B0
:100F5000A49FB001A59F700D1124861B970B982F9D
:100F6000990F980FBF01601B710B629FD001639FA7
:100F7000B00D729FB00D11248B2F9D9FB0011124D5
:100F8000672F7727EF01C61BD70BBE01629FE001D9
:100F9000639FD00D729FD00D11247F01E91AF108D3
:100FA000E09EB001E19E700DF09E700D1124672F40
:100FB0007727E61BF70BE29F8001E39F100DF29F5E
:100FC000100D1124E12F722F4230510599F048F491
:100FD0004115510569F04130510581F0EB2F8D2FFE
:100FE00007C04430510569F080F046305105B1F733
:100FF0006E2F8DCFE22F7B2F812FFACFE22F7D2F07
:10100000F7CFEB2F822F712FF3CF7B2F822FED2F76
:10101000EFCF41E00C94740708950C940908CF9326
:10102000DF93762FE901682F842F0E940D087983C2
:1010300068838A83DF91CF9108958091D402982F9D
:101040009E7F29F4817082608093D4020895863552
:10105000E8F381708465F8CF88E090E00C94682A0A
:10106000CF92DF92EF92FF926B017C010E941D08EC
:10107000B701A60188E090E0FF90EF90DF90CF905D
:101080000C94862AE4EDF2E083E0808311828FEFF6
:1010900082838383148260817181828193810C9425
:1010A00030088091D40280FF02C08695089580E0C8
:1010B00008959091D802933018F49F5F9093D802CE
:1010C000882351F06091D4027091D5028091D602AC
:1010D0009091D7020C943008089581E00C9459083F
:1010E0009091D802992319F091509093D8028823B7
:1010F00051F06091D4027091D5028091D602909106
:10110000D7020C943008089581E00C94700870E0C8
:101110000C94E10E609108018091D40280FF0AC016
:101120008091070123E0829FC001112487529D4FC7
:101130000C9487088091090190910A0123E0829F15
:10114000F0011124E752FD4F891750F711821082E8
:1011500012828F5F3396F8CF9091D40290FF14C023
:101160009091090120910A0133E0939FF00111242D
:10117000E752FD4F921710F00C948A088183608328
:1011800042839F5F3396F6CF0895CF93DF9300D0CD
:101190000F92CDB7DEB79091D40290FF0AC09E01A6
:1011A0002F5F3F4F0E940F084B8169818A810E9407
:1011B000AC080F900F900F90DF91CF910895CF93CF
:1011C000DF93EC01EC81F0E0EF5FFC4F4491E4ED44
:1011D000F2E0628181810E94C5088C818F5F8C83DF
:1011E000DF91CF910895CF93DF93EC01E4EDF2E02E
:1011F000438162818C810E94C5088C818F5F8C83C2
:10120000DF91CF9108950F931F93CF93DF9300D079
:101210000F92CDB7DEB78C018091CB0181110AC04E
:101220009E012F5F3F4F4FEF6FEF0E940F088A81A3
:101230008093CB01F8016481613069F08091CB012A
:1012400040E0662361F040E0623011F44091CB0150
:1012500080E060E004C06091CB0140E080E00E944B
:10126000AC08F801848190E0019663E070E00E9490
:101270008A2984830F900F900F90DF91CF911F9157
:101280000F910895AF92BF92CF92DF92EF92FF92AB
:101290000F931F93CF93DF9300D00F92CDB7DEB79C
:1012A000182FF62E042FE22E9091D40290FF29C021
:1012B000E92FE695AE2FB0E0A559BE4F8C918093F3
:1012C000F8019E7F923059F59E012F5F3F4F812F8D
:1012D0000E940F084B8169818A810E94AC0810939B
:1012E000D502F092D6020093D702EE2051F0609121
:1012F000D4027091D5028091D6029091D7020E94BB
:1013000030080F900F900F90DF91CF911F910F91A8
:10131000FF90EF90DF90CF90BF90AF900895823014
:1013200019F40091D702DBCF863019F41091D50261
:10133000D6CF8930D9F3893191F6E9518E2F81705A
:10134000D82EE695F0E0EF5FFB4FA590B490C12C4E
:10135000BB2460910B01C61618F00E948A08BFCF0B
:101360002C2D30E0A29EC001A39E900DB29E900D48
:10137000112470E00E947629812FD11013C0860FAE
:1013800040910901420F532F511D9A01220F331F23
:10139000240F351F27523D4F402F6F2D0E940F08FD
:1013A000C394D7CF861BECCFE4EDF2E09181282FD8
:1013B0004381628188E0890F0C94420981E00C949A
:1013C000D409E4EDF2E09181282F4381628188EF16
:1013D000890F0C94420981E00C94E109E4EDF2E0FC
:1013E000628128E0620F08F46FEF282F438181812A
:1013F0000C94420981E00C94EE09E4EDF2E0628184
:1014000028E0621B08F460E0282F438181810C945E
:10141000420981E00C94FD09E4EDF2E0438128E00B
:10142000420F08F44FEF282F628181810C9442090A
:1014300081E00C940C0AE4EDF2E0438128E0421BC9
:1014400008F440E0282F628181810C94420981E0F8
:101450000C941B0A20E00C944209EF92FF921F9318
:10146000CF93DF93EC0110E0EE24EA94F12C60912D
:101470000B01161770F00E948A089A818C8190FFE8
:1014800027C08F5F8C83DF91CF911F91FF90EF90EA
:10149000089520910901422F410F5527551FCA0178
:1014A0009A01220F331F280F391F27523D4F70E03A
:1014B000C7010E948A29962F8C814091D7026091A2
:1014C000D602199F800D11240E940F081F5FCFCFF5
:1014D0008150D8CFAF92BF92CF92DF92EF92FF921E
:1014E0000F931F93CF93DF93FC0182810FEF80FF57
:1014F00001E010E047E0A42E80910B011817C8F01E
:101500000E948A088091CD01013009F055C08111F7
:1015100002C080910B0181508093CD01DF91CF916A
:101520001F910F91FF90EF90DF90CF90BF90AF9001
:101530000895C0910901C12ED12CCC0DDD2DD11DF6
:10154000CE01880F991FC80FD91FC752DD4F1982CE
:1015500018821A8234E0E32EF12CB12C8091CD0157
:101560008B0D88301CF16A2D0E946829892F082E66
:10157000000C990BC816D90691F48091D7028E9D64
:10158000A0018F9D500D1124559547955595479570
:101590009E016091D6028091D5020E940F08B00E84
:1015A000F1E0EF1AF108D1F61F5FA6CF87FFDFCF7A
:1015B00090910B01890FDBCF90E0019660910B01B8
:1015C00070E00E948A29A8CF0F931F93CF93DF93D7
:1015D0008091090190910A0123E0829FF00111247A
:1015E000E752FD4F891740F1C0E0D3E060910B0155
:1015F000C61740F10E948A08209105018091CC0114
:10160000820F8093CC0190910601920F9093060176
:10161000191654F4082E000C990B40910B014150FF
:10162000550B841795071CF0219520930501DF9138
:10163000CF911F910F9108951182108212828F5FB6
:101640003396D0CF0C2F10E070E0C8010E948A2999
:1016500020910901820F482F50E02091CC01022EE9
:10166000000C330B02171307BCF020910601022E69
:10167000000C330B201731077CF08D9F9001112453
:1016800027523D4F4091D7026091D6028091D502FA
:101690000E940F08CF5FAACFFA01EE0FFF1FE40FE1
:1016A000F51FE752FD4F118210821282F3CF8F9205
:1016B0009F92AF92BF92CF92DF92EF92FF920F93E1
:1016C0001F93CF93DF93EC014C81042F10E098011E
:1016D000D8010E94CE299B01AC010E94E4294B0154
:1016E0005C01E0E2F0E0E01BF10BA5E5B0E0AC014D
:1016F0009B010E94E4296B017C019F01DF010E9494
:10170000C6299B01AC010E94EF299B01AC01280D69
:10171000391D4A1D5B1DC701B6010E949E29F22E8C
:10172000822F90E039E23F1560F143E0249F900161
:10173000112435952795122F109500E085E5E82EA8
:10174000EF1880910B01081758F10E948A089C81BC
:1017500081E0992319F0903219F48FEF80930401FE
:1017600080910401890F8C83DF91CF911F910F919C
:10177000FF90EF90DF90CF90BF90AF909F908F90B1
:10178000089525E530E0B901681B790B9B01220F14
:10179000331F260F371F37FFCCCF2F5F3F4FC9CFE7
:1017A0008E2D01FD8F2D20910901622F600F77276B
:1017B000771F9B01220F331F260F371F27523D4FE4
:1017C000412F6091D6020E940F080F5FBACF0F938E
:1017D0001F93CF93DF93EC0110E000E090910B0199
:1017E0009017110609F06CF40E948A088C8190E031
:1017F0000196817099278C83DF91CF911F910F9172
:10180000089520910901A801420F511D9A01220F4C
:10181000331F240F351F27523D4F4C816091D60254
:101820008091D50296959017110651F04CF0442303
:1018300049F04091D7020E940F080F5F1F4FCECF93
:101840004423B9F340E0F7CF8F929F92AF92BF92BB
:10185000CF92DF92EF92FF920F931F93CF93DF937C
:10186000FC01B280948081E0848300E015E05BE4B9
:10187000A52E88248394EE24EA94F12C7BE4C72ED1
:10188000D12C80910B01081770F0DF91CF911F913F
:101890000F91FF90EF90DF90CF90BF90AF909F900F
:1018A0008F900C948A08C02FD0E01C9FF0011D9FE0
:1018B000F00D1124E253FE4F91101CC013821282CE
:1018C00020910901CE01820F911D9C01220F331F2F
:1018D000280F391F27523D4F1C9FF0011D9FF00D0F
:1018E0001124E253FE4F4281618180810E940F08E2
:1018F0000F5FC7CF2381222379F1215023833481C5
:101900008A2D821B311101C0822F1C9FF0011D9F67
:10191000F00D1124E253FE4F9091D702899FC00130
:101920001124B6010E9476296283211104C0332359
:1019300011F01482A38222E02B1510F21C9FF001FB
:101940001D9FF00D1124E253FE4F8091D50280833C
:101950008091D6028183B4CF0E94432A8230914085
:101960000CF0AECF82E08B1530F50E94432AB70110
:101970000E948A291C9FF0011D9FF00D1124E25343
:10198000FE4F808322E02B15C8F40E94432A209149
:10199000D6022695622F70E00E948A29280F1C9F8C
:1019A000F0011D9FF00D1124E253FE4F218312829E
:1019B000A382848285CF8091D502DCCF2091D6028C
:1019C000EECFE4EDF2E080818E7F808360817181D3
:1019D000828193810E9430081092F9012FEF80E7F5
:1019E00092E0215080409040E1F700C000000C944C
:1019F0008A086091D402669570E04BE050E08CE07C
:101A000091E00E94532A892B19F481E08093F90117
:101A10000E94401E9093F2018093F10108959091ED
:101A2000D40290FF35C09170811128C092609093CC
:101A3000D402662351F06091D4027091D502809156
:101A4000D6029091D7020E9430086091D402669528
:101A500070E04BE050E08CE091E00E94532A892B2B
:101A6000A1F01092F90181E08093F4014091D70236
:101A70006091D6028091D5020C942A0A8B3210F024
:101A80009465D5CF880F982BD2CF0E94F90CEBCF5D
:101A90000895682F9091D402969581E0890F8B323A
:101AA00008F081E00C940F0D81E00C94490D682F33
:101AB0009091D40296958FEF890F09F48AE20C94E5
:101AC0000F0D81E00C94570D61E00C940F0DE4EDC7
:101AD000F2E080818160808386950C94640D809112
:101AE000D40280FD0C94E10C0C94670D60E00C9422
:101AF0000F0D8091F70181112EC00E944A1C8111A7
:101B000004C00E94F81C0E9442080E942C086093A6
:101B1000D4027093D5028093D6029093D7026E7F41
:101B200061F40E9442080E942C086093D4027093D2
:101B3000D5028093D6029093D7020E941D0810927E
:101B4000F9018091D40280FF03C086950E94760D32
:101B500081E08093F70108950F931F93CF93DF9354
:101B60008091F901882309F49DC08091F801E091EA
:101B7000D402E695E81BE093F3018230C9F5F0E06A
:101B8000E350FD4FE491CE2FD0E00FED18E08091AF
:101B9000F401882389F01092F4010E94401E9E01F6
:101BA00020953095820F931F9093F2018093F1015D
:101BB0001092F6011092F5018091F1019091F201DD
:101BC0000E944C1E8C179D0708F46CC0E091F10137
:101BD000F091F201CE0FDF1FD093F201C093F1011B
:101BE00081EF91E0F801DF91CF911F910F9109945E
:101BF000863049F4F0E0E650FD4FE491CE2FD0E07E
:101C000003EF18E0C4CF893051F4E695F0E0E950D5
:101C1000FD4FE491CE2FD0E00DE21AE0B8CF8F3027
:101C200051F4E695F0E0EC50FD4FE491CE2FD0E07A
:101C30000AE61AE0ACCF853149F4F0E0EF50FD4FF1
:101C4000E491CE2FD0E004EE1AE0A1CFC8E2D0E0BC
:101C500007E51BE0883109F49ACF833239F4EFEEBF
:101C6000F2E0C591D49103E019E091CFC4EFD1E047
:101C700007EE1BE0843209F48ACFC0EDD7E00CE018
:101C800018E0853209F083CF8E2F63E00E945C2933
:101C9000E92FF0E0E451FD4FE491CE2FD0E004E2D3
:101CA0001CE075CFDF91CF911F910F910895FA013C
:101CB000811101C0FB010994CF93DF93C82FD62F68
:101CC0000E9451088C1740F00E9451088D1720F493
:101CD000DF91CF910C94540D8C2FDF91CF910C9408
:101CE000640D0F931F93CF938C01FB01C281CC2312
:101CF00009F465C00E949B1B8272F801E35CFC45FD
:101D0000E431F10538F4E753F54D0C94C0290E94F5
:101D10006F0DC0E08C2FCF911F910F91089541E678
:101D20005DE064E57DE00E94570EF3CF44E55DE0A1
:101D300061E67DE0F8CF4BEE59E06EED79E0F3CF50
:101D40004EED59E06BEE79E0EECF49E05AE06AEFF4
:101D500079E0E9CF4AEF59E069E07AE0E4CF47E281
:101D60005AE068E17AE0DFCF48E15AE067E27AE0E2
:101D7000DACF44E858E06DE678E0D5CF4DE658E09C
:101D800064E878E0D0CF81E00E94640DC2CF65E0C6
:101D900082E00E945C0EBDCF68E086E0FACF6EE084
:101DA00089E0F7CF64E18FE0F4CF67E185E1F1CF1F
:101DB00088E1EACF62E289E1ECCF83E2E5CFC1E0DE
:101DC000A9CF539A4BB1477F5BB15860EFB7F894F6
:101DD0009B01220F331F260F371F280F391F28178B
:101DE000390741F4EFBF8FE594E00197F1F700C0A8
:101DF00000000895DC016D91CD0178E05BB9000031
:101E000000C067FF4BB9660F000000C000C000C0F3
:101E10004BB900C07A9591F7E2CFAF92BF92CF92C3
:101E2000DF92EF92FF920F931F93CF93DF937C018A
:101E30005B01C42FD22FFC0182818823F9F04093EB
:101E4000FC010E94401E9093FB018093FA0180E206
:101E50008C0F883008F061C0C77081E001C0880F26
:101E6000CA95EAF7DF91CF911F910F91FF90EF9004
:101E7000DF90CF90BF90AF900C949D131091FC0118
:101E8000141340C08091FA019091FB010E944C1EF6
:101E90006C01B701C5010E948F18C816D90690F5CC
:101EA000C0E2CD0F1D17B9F080E2810F883040F4F9
:101EB000177081E001C0880F1A95EAF70E94A413F9
:101EC000C83048F481E09D2F977001C0880F9A9523
:101ED000EAF70E949D13802F0E948A13C830E8F40D
:101EE000D77081E001C0880FDA95EAF7DF91CF91D2
:101EF0001F910F91FF90EF90DF90CF90BF90AF9028
:101F00000C94A41380E28C0F883038F4C77081E001
:101F100001C0880FCA95EAF7E9CFDF91CF911F91F1
:101F20000F91FF90EF90DF90CF90BF90AF9008950A
:101F30000F939C01CB01243F4CE5340759F1A8F4E1
:101F4000293DFCE53F0701F12A3D4CE53407D1F17D
:101F5000283D3C4591F406E221EE41EE68ED7CE53A
:101F60000E940D0F80E00F910895263FFCE53F078A
:101F7000E9F0B0F0273F3C45F9F0FC01828188236D
:101F800039F11092FC01EFCF07E225EE45EE69ED45
:101F90007CE5E6CF06E221EE40EE64EF7CE5E0CFA3
:101FA00007E225EE44EE65EF7CE5DACF06E221EEAE
:101FB00042EE66EF7CE5D4CF07E225EE46EE67EF12
:101FC0007CE5CECF08E221E045EE6AED7CE5C8CFA6
:101FD00081E0C9CFCF93DF93EC01FB01828188239D
:101FE00009F419C1C230FCE5DF07C0F1C6319CE538
:101FF000D90730F09E012B5F3C452930310570F543
:102000000E94671C9093F3028093F202C031ECE5CA
:10201000DE0709F4CFC008F05BC0C8308CE5D807F4
:1020200009F4B6C088F5C430ECE5DE0709F4A8C0B1
:10203000C0F4C2308CE5D80709F49CC08091F2024C
:102040008260C330DC4509F498C08091F20290911F
:10205000F3020E94751C0E94191680E0DF91CF9157
:1020600008958091F2028061C630ECE5DE0709F444
:1020700084C08091F2028860C730DC4508F47DC0DE
:102080008091F202806279C0CC308CE5D80709F4E7
:1020900089C070F48091F2028C60CA30ECE5DE07F2
:1020A00009F46BC008F478C08091F2028E7F65C09D
:1020B000CE308CE5D80709F479C08091F2028B7F8D
:1020C000CF30DC4508F459C08091F2028F7E55C0B4
:1020D000CC3FECE5DE0709F457C030F5C3318CE5A1
:1020E000D80709F46FC078F4C131ECE5DE0709F4D4
:1020F00065C0C231DC4509F0A8CF0E941916809155
:10210000F2028F773AC0C5318CE5D80709F462C076
:1021100008F476C08091F3028160CB3FDC4509F082
:1021200094CF8093F30291CFC115FDE5DF0709F449
:102130004DC088F48091F3028D7FCE3F9CE5D90796
:1021400081F38091F3028E7FCF3FDC4550F3809185
:10215000F3028360E6CFC230FDE5DF0709F459C022
:1021600008F444C080E0C330DD4509F06ECF0E9422
:10217000FA1C6BCF8091F20281608093F20265CFEE
:102180008091F2028460F9CF8091F3028260C9CF1E
:102190008091F2028064F1CF0E9419168091F202C0
:1021A0008068EBCF8091F2028D7FE7CF8091F202C1
:1021B000877FE3CF8091F2028F7DDFCF8091F202A3
:1021C0008F7BDBCF8091F202837FD7CF8091F302A8
:1021D0008C7FA7CF8091F20282FB992790F921E0B2
:1021E000922790FB82F990FB83F9C7CF8091F3028D
:1021F000982F909591708E7F892B90FB81F991CFCC
:102200000E9419169091F202892F97FB87F9805846
:10221000B4CF81E0ACCF81E021CFCF93DF93EB014E
:1022200086319C4511F50E949B1B9A81992399F058
:102230008A7A91E009F490E09093FD01811109C040
:1022400089E20E94761B0E94E71B80E0DF91CF911C
:10225000089585E3F6CF8091FD01811104C089E2E4
:102260000E947D1BF0CF85E3FBCF81E0EFCF909301
:102270000302809302020895E0910202F0910302AA
:10228000309721F00190F081E02D099480E00895CD
:10229000E0910202F0910302309799F02091290118
:1022A000222359F02091F20227FF07C0DC012C9174
:1022B00011962C93119725E02C930280F381E02D49
:1022C00009940895E0910202F0910302309739F0E9
:1022D00022E0DC012C930480F581E02D099408951F
:1022E00020910002309101022817390771F0909374
:1022F000010280930002E0910202F0910302309704
:1023000021F00680F781E02D099408952091FE01C7
:102310003091FF012817390771F09093FF018093E6
:10232000FE01E0910202F0910302309721F0008457
:10233000F185E02D0994089585B7806885BF85B73C
:10234000806885BF0895089508950C94A311089599
:102350000C94A7110E949C110E94A4110C94A51129
:1023600081E008950C94B011089508950E94371EDD
:102370000E947E060E94DB1E0E94790D0C94A8111B
:102380009F92AF92BF92CF92DF92EF92FF920F9304
:102390001F93CF93DF93CDB7DEB72A970FB6F8948C
:1023A000DEBF0FBECDBF0E94B4110E94B5110E94C6
:1023B000BC060E94B211882309F472C055E0A52E14
:1023C00052E0B52E10E000E0902E802F0E945906BA
:1023D0006C01F501E190F1905F01E816F90609F44E
:1023E00059C08091910281FD0E94620697012C25BF
:1023F0003D2580E0EE24E394F12CA9014E215F21DC
:10240000452B09F441C08E839F82CE20DF2081E0DE
:10241000CD2809F480E088870E94401E8160782FD3
:102420009A8789874E815F8168858A850E947312A9
:10243000000F111FF801EB5FFD4F80819181E826AD
:10244000F926F182E0820E94AC0D0E9489210E944F
:102450003C11909104028917A1F10E943C118093D4
:1024600004022A960FB6F894DEBF0FBECDBFDF91EF
:10247000CF911F910F91FF90EF90DF90CF90BF9081
:10248000AF909F900C943C048F5FEE0CFF1C8C303F
:1024900009F0B3CF0F5F1F4F0430110509F094CF3F
:1024A0008FEF89838A831B820E94401E8160782F70
:1024B0009D838C8349815A816B818D810E94731227
:1024C000C2CF2A960FB6F894DEBF0FBECDBFDF9104
:1024D000CF911F910F91FF90EF90DF90CF90BF9021
:1024E000AF909F900895CF93DF93CDB7DEB72B9732
:1024F0000FB6F894DEBF0FBECDBF4F8358876987F4
:102500007A878B871E821D8285E0FE013796DE0169
:10251000119601900D928A95E1F749815A816B815C
:102520007C818D819E812B960FB6F894DEBF0FBE05
:10253000CDBFDF91CF910C949218FC0180819181E5
:102540000C94481BCF93C82F882309F48BC0823882
:10255000C1F40E943C1181FD85C089E30E94761B75
:102560000E94E71B2FEF81EE94E0215080409040C5
:10257000E1F700C0000089E30E947D1BCF910C941D
:10258000E71B8338A1F40E943C1180FD6BC083E5FA
:102590000E94761B0E94E71B2FEF81EE94E02150F2
:1025A00080409040E1F700C0000083E5E5CF84382B
:1025B000A1F40E943C1182FD55C087E40E94761B65
:1025C0000E94E71B2FEF81EE94E021508040904065
:1025D000E1F700C0000087E4CFCF8CEF8C0F813A89
:1025E00090F46C2F80911701909118010E94131D97
:1025F000882329F08C2F0E947D1B0E94E71B8C2FC3
:102600000E94761BBBCF80E28C0F883048F4C770E5
:1026100081E001C0880FCA95EAF70E949E1BAECFE9
:10262000EBE5EC0FE33040F4F0E0EC53FE4F80813B
:1026300090E0CF910C947011E8E5EC0FE73150F485
:10264000F0E0EE0FFF1FEA56FE4F80819181CF919F
:102650000C948611C03F30F08C2F0E948320CF91C4
:102660000C946E21CF910895882309F452C08238CA
:1026700071F40E943C1181FF4CC089E30E94761BDB
:102680000E94E71B89E30E947D1B0C94E71B8338A3
:1026900059F40E943C1180FF3CC083E50E94761BE8
:1026A0000E94E71B83E5EFCF843859F40E943C1168
:1026B00082FF2FC087E40E94761B0E94E71B87E4FD
:1026C000E2CF9CEF980F913AF0F290E2980F983099
:1026D00050F4877091E001C0990F8A95EAF7892F2D
:1026E0000E94A41BD2CF9BE5980F933020F490E07A
:1026F00080E00C94701198E5980F973120F490E0E9
:1027000080E00C948611803F20F00E94EB200C9416
:102710006E210895CF93C82F0E94A212C93349F4A5
:102720002FEF87EE93E0215080409040E1F700C00A
:1027300000008C2FCF910C943413882321F00E9439
:102740009E1B0C94E71B0895882321F00E94A41B74
:102750000C94E71B0895BF92CF92DF92EF92FF9205
:102760000F931F93CF93DF936C01D62FC72FFC01DC
:10277000058102950F70128111110E94BB1B0E94EE
:10278000941BE82E882391F01123D1F08C2F807FA9
:10279000803421F080E28D0F883090F082E00E943A
:1027A000321C0E94941B91E0E82EE926BC2EB294C4
:1027B0009FE0B922EB2DF0E0E352F54D0C94C029D7
:1027C000E12CF4CF0C2F0F70C07F11F00295007F29
:1027D0001123A9F0002359F080E28D0F883010F00A
:1027E000D11109C0802F0E949E1B0E94E71B8D2FD4
:1027F0000E94A21214C0802F0E94AE1BF6CF8D2F14
:102800000E943413002359F080E28D0F883010F0BD
:10281000D1112CC0802F0E94A41B0E94E71B2B2DDE
:102820002850330B2430310520F40E943C110E94C3
:102830003C04EE2009F49EC10E94901B80FD9AC1C9
:10284000F60112820E948A1B0E94161AC6010E947B
:10285000DB150E948A1BDF91CF911F910F91FF9092
:10286000EF90DF90CF90BF900C94371A802F0E948A
:10287000B41BD3CFFC2FFF70FF2EC07FC03219F0E6
:10288000F29480EFF822DD2369F0D13049F1112371
:1028900091F1002351F1F601858180FFA8CF8F705F
:1028A000858323C0112381F0011106C00E94CE1B35
:1028B0008F290E949D13B3CF0130C1F70E94CE1B18
:1028C0008F290E94D41BABCF011106C00E94DD1BD3
:1028D0008F2D0E94A413A3CF013009F4A0CFF6CF0F
:1028E000112329F0063008F09ACF8F2DE2CF053062
:1028F00008F095CFEDCF002359F3D93349F4FFEF1A
:1029000027EE33E0F15020403040E1F700C00000F6
:102910008D2F0E94341383CF8C2F869586958370DC
:1029200069F0813009F07BCF8D2F9C2F93701111AE
:1029300002C090E080E00E94861171CF8D2F9C2F05
:102940009370111102C090E080E00E94701167CF77
:102950008D2F112329F00E9483200E946E215FCFCA
:102960000E94EB20FACF8C2F837009F041C0111127
:1029700056CF4D2F429546954770440F440F0D2F6B
:102980000F7010E030E020E0042E04C0000F111F93
:10299000221F331F0A94D2F760E070E0CB01D4FF0E
:1029A0000FC06FE070E080E090E004C0660F771F1A
:1029B000881F991F4A95D2F76095709580959095DC
:1029C000C695C695C370602B712B822B932BC2309A
:1029D00049F058F4C13019F00E94C81920CF0E9464
:1029E000B6191DCF0E94DA191ACF0E94B41917CF59
:1029F0008695112311F08C2F8170882309F40FCF55
:102A00004D2F429546954770440F440F0D2F0F7080
:102A100010E030E020E0042E04C0000F111F221F40
:102A2000331F0A94D2F760E070E0CB01D4FF0FC0EF
:102A30006FE070E080E090E004C0660F771F881FB1
:102A4000991F4A95D2F76095709580959095C69597
:102A5000C695C370602B712B822B932BC23049F02B
:102A600058F4C13019F00E948D1AD9CE0E947B1AF9
:102A7000D6CE0E949F1AD3CE0E94F019D0CECF702E
:102A8000112329F08C2F0E94161A8D2F12CF8D2F13
:102A90000E94A4138C2F0E94371AC1CED23F89F115
:102AA00060F4D03FC9F0D13F29F1112309F442C0AD
:102AB00001119DCE8C2F8F7121C0D33F39F1D43FAE
:102AC000A1F7112369F1CF718C2F0E94161A63E0D0
:102AD0008C2F0E941D1CA3CE112341F0053008F05D
:102AE0009ECE8C2F8F710E945A1A99CE063008F014
:102AF00096CEF7CF8C2F8F71112369F20E94161A90
:102B00008ECE8C2F8F711123C9F3C5CF112329F0DD
:102B10008C2F8F710E94011A82CE0E94FC197FCEE9
:102B200081E00E94321C023008F479CE82E00E94DB
:102B3000321C75CE002359F0D93309F0E9CE8FEF5E
:102B400097EEE3E081509040E040E1F7DFCE8C2F3C
:102B50008F71A1CF4C2F4F706D2FC6010E9444047E
:102B60000E942C195CCE4C2F4F706D2FC6010E9415
:102B7000470455CEDF91CF911F910F91FF90EF90B9
:102B8000DF90CF90BF9008950F931F93CF93DF9363
:102B9000EC01688179818A810E94521B8C010E941C
:102BA000B11A0E94B319B801CE01DF91CF911F91E4
:102BB0000F910C94AB13CF93DF93EC018B819C812D
:102BC000892B29F08881998189238F3F59F4DF91DE
:102BD000CF910895CE010E94C415CE01DF91CF910F
:102BE0000C94CE03CE010E94F3038111F3CF0E9417
:102BF000941B882361F38A81882349F382E0DF9163
:102C0000CF910C94321C0E94BB1B0E94CB1B0E94D4
:102C1000E71B0E9495220E946E2190E080E00E94B6
:102C2000701190E080E00C9486110E94841B0C943B
:102C300003160E94AB1B0C941516E92FE295EF705A
:102C4000E250EE3070F4F0E0E351F54D0C94C02901
:102C5000803F19F020F4883E20F481E00895843FFD
:102C6000E1F380E00895883EC0F3813FD1F7F5CFCE
:102C700093FB882780F908950E94481B0C941D1629
:102C8000CF93DF9300D000D00F92CDB7DEB70F9077
:102C90000F900F900F900F90DF91CF910895CF93E9
:102CA000DF9300D000D000D0CDB7DEB726960FB6A8
:102CB000F894DEBF0FBECDBFDF91CF9108951F9373
:102CC000CF93DF93C0910E0216E080910F028C1318
:102CD00004C0DF91CF911F910895D0E01C9FF001B7
:102CE0001D9FF00D1124E05FFD4F408151816281F5
:102CF0007381848195810E944F162196C770E5CF1C
:102D00004091400250914102609142027091430211
:102D100080914402909145020C944F161F93CF93DB
:102D2000DF9380914502807FA9F48091420288233D
:102D300089F080910E02C0910F0260914002709163
:102D40004102A0914302B0914402D62FD72316E04E
:102D5000C81304C0DF91CF911F91089590E01097A0
:102D600011F0DF3F19F401968770F2CF189F9001A0
:102D7000199F300D1124F901E05FFD4F4181471388
:102D8000F2CF40814613EFCF42814111ECCF438116
:102D900054814A1B5B0B483C510528F78091450242
:102DA0008F70806180934502F901EB5EFD4F808159
:102DB0008F708061808380E492E00E94DB15DF9158
:102DC000CF911F910C945F16AF92BF92CF92DF927A
:102DD000EF92FF920F931F93CF93DF93CDB7DEB7A0
:102DE00061970FB6F894DEBF0FBECDBF8C0185E0B2
:102DF000F801DE011D9601900D928A95E1F7F80128
:102E000040815181E28080E4C82E82E0D82E60911A
:102E10004302709144026115710509F461C19091FA
:102E2000400220914102892F82238F3F09F458C12B
:102E3000A380B480F0904202F501E61BF70BFF205F
:102E400009F4FCC080914502382F307FE83CF10541
:102E500008F0B2C0311179C0FE2C251323C09413A1
:102E600021C0E1101FC08F708061809345020E94D5
:102E70008016C6010E94DB1580914502F80185830A
:102E80008F2D61960FB6F894DEBF0FBECDBFDF91D8
:102E9000CF911F910F91FF90EF90DF90CF90BF9057
:102EA000AF900895AB2829F0842F85238F3F09F038
:102EB00033C180E0F82FF170DF2E80FF3CC080919D
:102EC0000E0220910F0236E0821315C04D875E87F7
:102ED0008D859E850E94481B292F22952F702230B8
:102EE000F0F0243018F59F70F1F0F8019581907F93
:102EF000D1F4D12C1EC090E0389FF001399FF00D25
:102F00001124E05FFD4F6181651306C06081641389
:102F100003C062816E110FC001968770D5CF9F707C
:102F200011F0882331F3805E883018F3C8010E94C5
:102F3000DB15FD2CA5CFEE2009F4A2CF8091450230
:102F4000816080934502F12C9BCF251306C094131A
:102F500004C0F801EE2009F48DC04D875E878D8591
:102F60009E850E943C16882319F1EE2009F180917C
:102F70004502803270F02091400230914102388742
:102F80002F831986BB86AA868C87CE0107960E945E
:102F9000DB1586E0F801A0E4B2E001900D928A957D
:102FA000E1F70E948E160E948016FF24F39468CFEA
:102FB000C8010E94DB15F9CF311113C07A2DB98AEF
:102FC000A88A6E2D89890E94401680E492E00E94B2
:102FD000DB1586E0F60111928A95E9F70E948016CA
:102FE000B2CF25130FC094130DC0E1100BC0F80130
:102FF0008583C8010E94DB1586E0F60111928A954F
:10300000E9F73ECF4D875E878D859E850E943C16F1
:10301000882371F2EE2061F280914502803208F43B
:10302000B8CF20914002309141023A8329831B821C
:10303000BD82AC828E83CE010196A9CFE83CF1051A
:1030400008F041C0FE2CEE2009F4B2CF25132AC0AF
:10305000941328C08091450280FD1BC0982F907F5B
:10306000C1F0F8018583903F31F0982F907F905FF9
:103070008F70892B8583C8010E94DB1586E0F801DB
:10308000A0E4B2E001900D928A95E1F70E948016CB
:10309000F7CE86E0F801A0E4B2E001900D928A95A7
:1030A000E1F7EECE4D875E878D859E850E943C16AA
:1030B00081116FCF80914502816080934502C801E4
:1030C0000E94DB15DDCE7A2DB98AA88A6E2D8989FA
:1030D0000E94401686E0F60111928A95E9F7D6CF54
:1030E000EE2009F465CF4D875E878D859E850E9411
:1030F0003C16F82E882309F45BCF86E0F801A0E4A3
:10310000B2E001900D928A95E1F780E492E00E948E
:103110009D120E948E16BACF81E08E25CBCE88EC10
:1031200090E008951F93CF93DF93CDB7DEB72C9730
:103130000FB6F894DEBF0FBECDBF4F8358876987A7
:103140007A878B879C87CE0107960E94E416882396
:1031500069F08A859B85892B39F04F815885842FAA
:1031600085238F3F09F071C016E05FC086E0FE0145
:103170003796DE01119601900D928A95E1F78A85C6
:103180009B85892B89F38F81988589238F3F61F3F4
:1031900020910F0230E0C901019687709927409174
:1031A0000E024817190671F40E94191610920F02A8
:1031B00010920E0286E0E0E4F2E0DF011D928A95B3
:1031C000E9F7D2CF96E0929FD001939FB00D1124E2
:1031D000A05FBD4FFE01319601900D929A95E1F7E7
:1031E00080930F020E945F16BFCF819FC001112400
:1031F000805F9D4F0E94E4168823E9F0E0910E0263
:103200001E9FF0011124E05FFD4F408151816281DA
:103210007381848195810E944F1680910E0290E007
:1032200001968770992780930E0280910E029091EB
:103230000F028913DACF2C960FB6F894DEBF0FBEBB
:10324000CDBFDF91CF911F91089569857A858B85D8
:103250009C850E944F1688CFEF92FF920F931F9389
:10326000CF93DF938C01892B81F0F12CEE24E39432
:10327000E8012196F8018491843770F4843008F0D5
:103280005FC08130B1F08230A1F1DF91CF911F9109
:103290000F91FF90EF900895853709F44CC008F422
:1032A0003DC09CE7980F903780F78F770E943413CA
:1032B00049C00E5F1F4FFE01849190E2980F983035
:1032C00060F48770FE2D01C0FF0F8A95EAF78F2FFB
:1032D0000E94BE1B0E94E71B02C00E94A2128F2DFB
:1032E000815030F2EFE9FFE03197F1F700C00000C4
:1032F000F7CF0E5F1F4FFE01849190E2980F983038
:1033000050F48770FE2D01C0FF0F8A95EAF78F2FCA
:103310000E94C41BDFCF0E943413E1CF0E5F1F4F0A
:10332000FE01C491C150D8F28FE99FE00197F1F7F7
:1033300000C00000F7CF0E5F1F4FFE01F490CFCF0B
:103340000E94A2128E01CBCF08950C94A4190E9462
:10335000A519609368027093690280936A02909342
:103360006B020C94031608950C94A7190F931F93E6
:10337000009168021091690220916A0230916B02FB
:10338000602B712B822B932B1F910F910C94A719FB
:103390000F931F93009168021091690220916A02B5
:1033A00030916B0260237123822393231F910F912D
:1033B0000C94A7190F931F93009168021091690252
:1033C00020916A0230916B02602771278227932730
:1033D0001F910F910C94A7190C94A4190C94EC193B
:1033E0000E94EE19609364027093650280936602F6
:1033F000909367020C94031660E070E0CB010C948C
:10340000F0190F931F9341E050E060E070E08A01F3
:103410009B0104C0000F111F221F331F8A95D2F792
:10342000C901B8011F910F910C94F0190F931F93CC
:1034300041E050E060E070E004C0440F551F661F9B
:10344000771F8A95D2F78091640290916502A091CE
:103450006602B09167028A019B01082B192B2A2B67
:103460003B2BC901B8011F910F910C94F0190F93D8
:103470001F9341E050E060E070E004C0440F551F2E
:10348000661F771F8A95D2F7CB01BA0160957095B8
:1034900080959095009164021091650220916602DA
:1034A0003091670260237123822393231F910F9130
:1034B0000C94F0190F931F9341E050E060E070E02E
:1034C00004C0440F551F661F771F8A95D2F780915D
:1034D000640290916502A0916602B09167028A0130
:1034E0009B01082719272A273B27C901B8011F91EB
:1034F0000F910C94F0190F931F9300916402109197
:1035000065022091660230916702602B712B822B3D
:10351000932B1F910F910C94F0190F931F9300910F
:103520006402109165022091660230916702602367
:103530007123822393231F910F910C94F0190F9301
:103540001F930091640210916502209166023091F0
:10355000670260277127822793271F910F910C9490
:10356000F01908952CE0929F800D1124982F9770E8
:1035700041E001C0440F9A95EAF7869586958695B5
:1035800095E0899FF0011124EA5BFD4F90E080E017
:1035900070E05191DF0111979B01082E02C0369512
:1035A00027950A94E2F721702195252724232527C2
:1035B0002C9301968530910561F708952CE0929F38
:1035C000800D1124982F977086958695869525E015
:1035D000829FF0011124EA5BFD4F50E040E080E063
:1035E000219130E0092E02C0369527950A94E2F722
:1035F00021703327042E01C0220F0A94EAF7822B90
:103600004F5F5F4F4530510559F70895BF92CF92F4
:10361000DF92EF92FF920F931F93CF93DF938C0172
:10362000C0906402D0906502E0906602F09067025C
:103630008091680290916902A0916A02B0916B0238
:10364000C82AD92AEA2AFB2ACFE1D0E0BC2ED7012A
:10365000C6010C2E04C0B695A795979587950A9438
:10366000D2F780FD0EC0219788F7B12C8B2DDF910A
:10367000CF911F910F91FF90EF90DF90CF90BF906F
:103680000895B8018C2F0E946404019761F3EECF76
:10369000CF93DF93EC010E94061BBE01DF91CF9117
:1036A0000C9464041F93CF93DF93EB0190910D0270
:1036B000992331F0CB01DF91CF911F910C94481BDE
:1036C000882379F0CB010E94061B182F682FCE01AA
:1036D0000E94B21ABE01812FDF91CF911F910C94ED
:1036E0006404CB010E94DE1A182FF4CF682F80915A
:1036F0001701909118010C94931D682F8091170168
:10370000909118010C949E1D8091170190911801C1
:103710000C94A91D80916C028595859585950895D9
:1037200080916C028770089590916C02977081E08F
:1037300009F480E00895809190020895909190029C
:10374000892B809390020895809590919002982300
:1037500090939002089510929002089590918F0294
:10376000892B80938F020895809590918F029823E2
:1037700090938F02089510928F02089590918E0277
:10378000892B80938E020895809590918E029823C4
:1037900090938E02089510928E02089580916D028A
:1037A000089508950C94D11B90916D02981721F003
:1037B00080936D020C94D21B089580916D02882332
:1037C00029F010926D0280E00C94D21B0895E091D4
:1037D0001701F0911801809190028083E091170108
:1037E000F0911801808190918F02892B8083E09164
:1037F0001701F0911801808190918E02892B8083AE
:1038000090916D02992381F0E0911701F0911801D8
:103810008081892B808380911701909118010E94EB
:10382000FF1C81110E94DD1B8091170190911801EE
:103830000C94481108950C941A1C98E0899F9001EB
:103840001124622B60936C020E94161A80916C0204
:103850008595859585950C941B1C10926C0280E0D3
:103860000C941B1C90916C028095892380936C02B0
:10387000282F277071F4282F082E000C330B921775
:10388000130639F08595859585950E94371A0C9415
:103890002D1C089590E080E00E946E2A21E08C3E6D
:1038A0009E4F09F020E0822F089582E090E00C9472
:1038B000602A682F82E090E00C94742A83E090E004
:1038C0000C94602A682F83E090E00C94742ACF93C4
:1038D00084E090E00E94602AC82F81E290E00E947C
:1038E000602A982F8C2FCF910895CF93C92F682FDE
:1038F00084E090E00E94742A6C2F81E290E0CF91E6
:103900000C94742AAB01BC018FE090E00C94862AE1
:10391000AB01BC0183E190E00C94862A60E070E08A
:10392000CB010C94881C60E070E0CB010E94821CEB
:103930000C948E1C6CEE7EEF90E080E00E94922A48
:1039400060E082E090E00E94742A60E083E090E012
:103950000E94742A109268021092690210926A0200
:1039600010926B0260E084E090E00E94742A60E0B4
:1039700081E290E00E94742A60E085E090E00E947D
:10398000742A60E086E090E00E94742A6FEF87E07E
:1039900090E00E94742A40E050E0BA0188E090E094
:1039A0000E94862A60E08DE090E00E94742A40E048
:1039B00050E0BA0188E190E00E94862A60E087E149
:1039C00090E00E94742A40E050E0BA018CE190E05F
:1039D0000E94862A60E080E290E00E94742A40E023
:1039E00050E0BA0188E190E00E94862A0C94931C72
:1039F0000C949A1C682F8EE090E00C94742AFC01C1
:103A0000329680912901882321F08091F2029EE173
:103A100087FF96E080E0915008F4089521912223D9
:103A2000D1F38F5FF8CF662301F120912901222382
:103A3000F1F02091F20227FF1AC0462F46954695D5
:103A400046954E3190F4677021E030E002C0220FBD
:103A5000331F6A95E2F7840F911DFC01828190E08B
:103A60002823392381E0232B69F480E00895FC01A9
:103A7000329608962191261721F0E817F907D1F719
:103A8000F4CF81E008959C01FC0132969FEF80E025
:103A90004191461751F09F3F19F4411101C0982FF1
:103AA0008F5F8630A9F79F3F09F40895290F311DD4
:103AB00097FD3A95F90162830895FC0132960896C4
:103AC0002191261303C0DF0111971C92E817F90713
:103AD000B9F70895E62FE695E695E695EE3168F498
:103AE000E80FF92FF11D677021E030E001C0220FCF
:103AF0006A95EAF78281822B82830895E62FE69504
:103B0000E695E695EE3170F4E80FF92FF11D677038
:103B100021E030E001C0220F6A95EAF7209582810A
:103B200028232283089520912901222329F020911E
:103B3000F20227FD0C946A1D0C94431D209129016B
:103B4000222329F02091F20227FD0C947E1D0C9473
:103B50005D1DFC01329680912901882351F08091EE
:103B6000F20287FF06C08EE1DF011D928A95E9F718
:103B7000089586E0F9CF089508950C94BC1D0E9425
:103B8000BD1D8091F802843049F11092920288E1C3
:103B900090E020E40FB6F894A895809360000FBEE3
:103BA0002093600080E00E943C040E94BD1D83B70A
:103BB000817F846083BF83B7816083BF7894889559
:103BC00083B78E7F83BF0FB6F894A895809160006D
:103BD000886180936000109260000FBE0895089580
:103BE000CF930E94BB1D0E94BC060E94EF1DC0E047
:103BF0008C2F0E945906892B31F4CF5FC430C1F756
:103C000080E0CF91089581E0FCCF08950C94051ECB
:103C10000E9419160E943C110E943C040C94061E3E
:103C20001F921FB61F9211248F939F93AF93BF9340
:103C300080919202811113C08091EE029091EF0267
:103C4000A091F002B091F1024196A11DB11D8093A7
:103C5000EE029093EF02A093F002B093F102BF91B5
:103C6000AF919F918F911F901FBE1F90189582E07A
:103C700084BD93E095BD9AEF97BD80936E00089543
:103C80002FB7F8948091EE029091EF02A091F0028C
:103C9000B091F1022FBF08959C014FB7F894809125
:103CA000EE029091EF02A091F002B091F1024FBFAD
:103CB000821B930B089578941F921FB61F921124B4
:103CC0008F939F93AF93BF938091EE029091EF02F9
:103CD000A091F002B091F1020196A11DB11D809357
:103CE000EE029093EF02A093F002B093F102BF9125
:103CF000AF919F918F911F901FBE1F90189587E7DE
:103D000097E7909301088093000888E19AE00FB646
:103D1000F894A895809360000FBE90936000FFCF49
:103D2000AF92BF92CF92DF92EF92FF920F931F93C9
:103D3000CF93C0E0CC24C394D12CE82EF12C8C2F4F
:103D40000E9459065C0110E000E0C601002E02C08E
:103D5000880F991F0A94E2F78A219B21892B99F4F5
:103D60000F5F1F4F0C30110581F7CF5FC43039F75B
:103D700080E0CF911F910F91FF90EF90DF90CF9057
:103D8000BF90AF900895602F7C2F80E00E94480480
:103D9000E816F90629F781E0ECCFCF93C82F8CE223
:103DA0000E94901E882321F08C2FCF910C94901E9E
:103DB00080E0CF910895CF930E944A1C811102C0E8
:103DC0000E94F81CC5E608C00E94BC068FE39CE96F
:103DD0000197F1F700C00000C150B1F789E20E94DD
:103DE000CD1E81110BC18AE20E94CD1E81110E945D
:103DF000F81C85E00E94CD1E81110E947F1E0E944A
:103E0000551C8093910287E00E94CD1E882371F09B
:103E10008BE10E94CD1E882309F4CDC090919102C0
:103E2000892F8D7F91FF8260809391028091910212
:103E30000E94591C0E94671C9093F3028093F20227
:103E400080EE0E94CD1E882341F09091F202892FCE
:103E50008E7F90FF81608093F20289E30E94CD1EE5
:103E6000882341F09091F202892F8D7F91FF82602B
:103E70008093F20282EE0E94CD1E882341F0909141
:103E8000F202892F8B7F92FF84608093F20286EE8C
:103E90000E94CD1E882341F09091F202892F877FE6
:103EA00093FF88608093F20283EE0E94CD1E8823E8
:103EB00041F09091F202892F8F7E94FF8061809370
:103EC000F20285E30E94CD1E882341F09091F20218
:103ED000892F8F7D95FF80628093F20281E30E949B
:103EE000CD1E882341F09091F202892F8F7B96FF9F
:103EF00080648093F20281E10E94CD1E882341F00C
:103F00009091F202892F97FB87F980588093F202F3
:103F10008091F2029091F3020E94751C87E20E9448
:103F2000CD1EC82F8EE10E94CD1E8111C2608FE18F
:103F30000E94CD1E8111C46080E20E94CD1E8111BD
:103F4000C86081E20E94CD1E8111C06182E20E94A0
:103F5000CD1E8111C06283E20E94CD1E8111C0641A
:103F600084E20E94CD1E882309F442C0C0688C2FD1
:103F70000E94621C6C2F70E090E080E00E94B419F7
:103F8000609164027091650280916602909167026F
:103F90000E94EE198FE00E94CD1E882319F081E067
:103FA0000E94FA1C85E10E94CD1E882339F180E031
:103FB000CF910C94FA1C8EE00E94CD1E882339F01C
:103FC00090919102892F8B7F92FF84602DCF80E1A9
:103FD0000E94CD1E90919102882329F0892F877F1E
:103FE00093FF886021CF892F8E7F90FF81601CCF47
:103FF000C111BDCF0E945E1C682FBDCFCF91089527
:1040000080919B0280FF12C060911D0185E0689F36
:10401000B0011124759567957595679560387105A0
:10402000A8F561157105A1F1862F089581FF09C0DA
:1040300060911D0185E0689FB00111247595679519
:10404000EDCF60911D0182FD0AC080919A02882304
:10405000D1F090911C0160911D01891728F085E035
:10406000689FB0011124DACF869FB001112485E04A
:10407000869F9001879F300D1124692F70E0C90140
:104080000E948A29CBCF65E070E0CECF8FE70895FC
:1040900081E0089580919B0280FF0CC060911A011D
:1040A00070E075956795759567956115710549F18E
:1040B000862F089581FF06C060911A0170E0759502
:1040C0006795F3CF60911A0182FD0BC09091990220
:1040D0009923A1F06091190180911A01961738F087
:1040E000682F70E06038710500F38FE70895899FAD
:1040F000C001112470E00E948A29F4CF61E070E0D1
:10410000D7CF81E00895803F31F40E94002081954F
:1041100080939F020895813F19F40E940020F8CFF8
:10412000823F31F40E940020819580939E02089581
:10413000833F19F40E940020F8CF893F29F40E94A0
:104140004A208093A00208958A3F21F40E944A20C9
:104150008195F7CF8B3F31F40E944A20819580935F
:10416000A10208958C3F19F40E944A20F8CF843FA1
:1041700031F480919D02816080939D020895853F76
:1041800021F480919D028260F7CF863F21F48091D7
:104190009D028460F1CF873F21F480919D02886069
:1041A000EBCF883F21F480919D028061E5CF8D3F68
:1041B00031F480919B02816080939B0208958E3F31
:1041C00021F480919B028260F7CF8F3FB9F78091F5
:1041D0009B028460F1CF90919E02803F59F48091C0
:1041E0009F0287FF0DC010929F0291110BC0109289
:1041F0009A0208C0813F81F480919F0218169CF3B7
:10420000992381F08091A0029091A102892B09F05D
:1042100064C0109299020895823F49F497FFF0CF4D
:1042200010929E0280919F028111ECCFE0CF833FDC
:1042300019F41916ACF3E4CF2091A002893F29F4B8
:104240001216F4F61092A002DBCF8A3F19F427FF72
:10425000D7CFF8CF2091A1028B3F29F427FFD0CFF1
:104260001092A102CDCF8C3F19F41216CCF3C8CF17
:10427000843F31F480919D028E7F80939D02C0CF58
:10428000853F21F480919D028D7FF7CF863F21F4F9
:1042900080919D028B7FF1CF873F21F480919D0219
:1042A000877FEBCF883F21F480919D028F7EE5CF01
:1042B0008D3F31F480919B028E7F80939B02A0CF33
:1042C0008E3F21F480919B028D7FF7CF8F3F09F0C5
:1042D00097CF80919B028B7FF0CF08950E94401E64
:1042E0009C0190919E0280919F02982B21F0309327
:1042F0009802209397029091A0028091A102982B9E
:1043000021F030939602209395028CE992E00C9470
:104310006211EF92FF920F931F93CF93DF9300D020
:1043200000D000D0CDB7DEB786E0ECE9F2E0DE01E8
:10433000119601900D928A95E1F7E0909E02F0901F
:104340009F020091A0021091A10210929E02109271
:104350009F021092A0021092A1028E2D8F2991F03F
:1043600080919702909198020E944C1EAC0190910E
:104370009A02992309F43FC080911E018417150603
:1043800008F447C0802F812B91F080919502909185
:1043900096020E944C1EAC0190919902992309F457
:1043A00077C080911B018417150608F47FC08091A7
:1043B0009E0290919F02892B9091A002892B90914F
:1043C000A102892B11F00E946E2186E0FE01319638
:1043D000ACE9B2E001900D928A95E1F726960FB60E
:1043E000F894DEBF0FBECDBFDF91CF911F910F912B
:1043F000FF90EF900895209194028AE0289F900109
:1044000011242417350708F0BDCF9F5F90939A02BF
:1044100002C09F3FD1F7EE2059F00E9400209FEF8D
:104420001E140CF491E0899F802D112480939E022C
:10443000FF2059F00E9400209FEF1F140CF491E020
:10444000899F802D112480939F0230919E023323F7
:1044500009F498CF20919F02222309F493CF45EBD2
:104460003403C0011124992359F090939E0245EB27
:10447000240390011124332339F030939F0282CF1B
:1044800081E080939E02F3CF81E080939F027ACFF8
:10449000209193028AE0289F900111242417350768
:1044A00008F085CF9F5F9093990202C09F3FD1F79C
:1044B000002359F00E944A209FEF10160CF491E05F
:1044C000899F802D11248093A002112359F00E940E
:1044D0004A209FEF11160CF491E0899F802D112442
:1044E0008093A1023091A002332309F460CF209180
:1044F000A102222309F45BCF45EB3403C001112450
:10450000992359F09093A00245EB240390011124C4
:10451000332339F03093A1024ACF81E08093A00287
:10452000F3CF81E08093A10242CF86E0ECE9F2E094
:10453000DF011D928A95E9F710929A021092990272
:1045400010929B0208958091C2020895CF93DF9349
:1045500000D00F92CDB7DEB79091F802943019F5E4
:1045600089837B836A8382E08093E9008FEF909157
:10457000E800815095FD06C095ED9A95F1F7000091
:104580008111F5CF8091E80085FF0DC050E040E03B
:1045900063E070E0CE0101960E94CB248091E80098
:1045A0008E778093E8000F900F900F90DF91CF915E
:1045B0000895BC0184E00C94A622BC0183E00C9415
:1045C000A6229C0182E08093E9009FEF8091E800A1
:1045D000915085FD06C085ED8A95F1F70000911197
:1045E000F5CF8091E80085FF0CC050E040E066E028
:1045F00070E0C9010E94CB248091E8008E778093FF
:10460000E8000895CF93DF93EC018091290188237E
:10461000B1F18091F20287FF32C060E282E08093C4
:10462000E9008FEF9091E800815095FD06C095ED6F
:104630009A95F1F700008111F5CF8091E80085FF90
:104640001BC08091290170E050E040E0811104C05E
:1046500050E040E068E070E0CE010E94CB24809101
:10466000E8008E778093E80080E2FE01A2EAB2E0E3
:1046700001900D928A95E1F7DF91CF91089568E05E
:1046800081E0CDCF8091F702811109C00E945B26A5
:104690000E94B8268091E20084608093E200089531
:1046A0001092F7020895089508950C94081E42E0B0
:1046B00061EC81E00E94D72542E261EC82E00C943B
:1046C000D7258091FA02833009F45FC030F481303D
:1046D000C1F1823009F49BC008958A3009F487C083
:1046E0008B3009F46DC0893009F04EC08091F90219
:1046F000813209F049C08091FD029091FE0202973B
:1047000008F042C08091E800877F8093E8008091A4
:10471000E80082FF35C09091F3008091F20002978B
:1047200029F48091F1008B7F813021F48091F10098
:104730008093C2028091E8008B778093E8000C940C
:104740000B268091F902813AF9F48091E800877F85
:104750008093E8008091FD029091FE02892B61F424
:1047600060E282EA92E070E00E941A258091E800FF
:104770008B778093E800089560E090E080E0F3CFCD
:104780008091F8028111C3CF08958091F902813A96
:10479000D9F78091FD029091FE02892BA9F78091B3
:1047A000E800877F8093E8008091E80080FFFCCFDD
:1047B000809129018093F1008091E8008E77BDCF30
:1047C0008091F902813201F78091FD029091FE0201
:1047D000892BD1F68091E800877F8093E8000E94C2
:1047E0000B268091FB02809329010C94191680916D
:1047F000F902813249F68091E800877F8093E800D2
:104800000E940B268091FC028093C3020895809140
:10481000F902813A09F0B8CF8091E800877F809350
:10482000E8008091E80080FFFCCF8091C302C2CFF6
:1048300084B7877F84BF0FB6F894A89580916000F5
:10484000886180936000109260000FBE80E890E065
:104850000FB6F89480936100909361000FBE0E94A0
:10486000AA110E945B260E94B8268091E200846013
:104870008093E20078940E9441290E94B6118FE152
:1048800091E00E9437118091F802853039F00E9442
:10489000C0110E94B4110E94B511F5CF0E94BF1D36
:1048A0008091F602882379F30E94F01D882359F342
:1048B0000E94B524E8CF0C945D24292F33272330A0
:1048C000310519F168F42130310509F444C0223072
:1048D000310509F445C090E080E030E020E025C0DB
:1048E0002132310549F122323105A9F780E490E007
:1048F0002FE336E061157105C1F08CEB90E023E801
:1049000035E06130710589F0E6CF99278130910556
:1049100081F0009729F00297F1F6E6E0F5E002C099
:10492000E2E3F5E0849190E09F01FA013183208376
:104930000895EAE1F5E0F6CF89E090E028E435E07B
:104940006115710591F389E090E021E635E0613071
:10495000710559F3C0CF82E190E021E735E0E5CF62
:104960008BE390E026E335E0E0CF80E189BD82E192
:1049700089BD09B400FEFDCF8091D8008F7D809362
:10498000D8008091E00082608093E0008091E00098
:1049900081FDFCCF0895AF92BF92CF92DF92FF923C
:1049A0000F931F93CF93DF936C01EB018A010E9459
:1049B0002A26F82E811123C00115110539F0F801BE
:1049C00080819181C81BD90BC80ED91EB12CA12C96
:1049D0002097A9F08091E80085FD22C08091E80031
:1049E0008E778093E80001151105A1F0F801808110
:1049F0009181A80EB91EB182A08285E0F82E8F2D7C
:104A0000DF91CF911F910F91FF90DF90CF90BF90DA
:104A1000AF9008950E942A268823D1F2F82EEFCF76
:104A2000F60181916F018093F1002197FFEFAF1A9A
:104A3000BF0ACECFFC018091FF0290910003861740
:104A40009707A0F06115710529F49091E8009E7711
:104A50009093E80090E06115710551F4911108C040
:104A60008091E80082FF34C080E00895BC01F2CF5D
:104A70008091F8028823C1F18530C1F18091E8006E
:104A800083FD30C08091E80082FDEACF8091E8008C
:104A900080FFE1CF8091F3002091F200382F611563
:104AA000710519F02830310558F091E028303105B2
:104AB00009F090E02091E8002E772093E800CBCF1A
:104AC00081918093F100615071092F5F3F4FE7CFD3
:104AD0008091F802882341F0853041F08091E80010
:104AE00083FFBECF81E0089582E0089583E00895BA
:104AF000FC018091FF029091000386179707A0F0B8
:104B00006115710529F48091E8008E778093E800A3
:104B100090E06115710551F4911108C08091E80091
:104B200082FF35C080E00895BC01F2CF8091F80289
:104B30008823C9F18530C9F18091E80083FD31C037
:104B40008091E80082FDEACF8091E80080FFE1CF0C
:104B50008091F3002091F200382F6115710519F052
:104B60002830310558F091E02830310509F090E007
:104B70008091E8008E778093E800CBCF849180937A
:104B8000F1003196615071092F5F3F4FE6CF809160
:104B9000F802882341F0853041F08091E80083FFDE
:104BA000BDCF81E0089582E0089583E00895982FB5
:104BB000973028F08F708093E90081E008959093FA
:104BC000E900242F762F50E0981731F07091EC0017
:104BD0002091ED005091F00021FD02C09F5FE8CFD1
:104BE0003091EB003E7F3093EB003091ED003D7F44
:104BF0003093ED003091EB0031603093EB00709317
:104C0000EC002093ED005093F0002091EE0027FD82
:104C1000E5CF80E008958091F90287FF13C080916D
:104C2000E80082FF06C08091E8008B778093E8005F
:104C300004C08091F8028111F2CF08958091F802AA
:104C40008823D9F38091E80080FFF8CF8091E800B5
:104C50008E77ECCF2091E4003091E50095E6A90134
:104C60002091EC00822F817020FF06C08091E80027
:104C700080FF06C080E008952091E80022FD1AC060
:104C80008091F802882389F0853089F08091EB00CB
:104C900085FD0FC02091E4003091E50042175307D5
:104CA000F9F29150E1F684E0089582E0089583E0FE
:104CB000089581E008950E94C9260E94D126E0EE61
:104CC000F0E0808181608083E8EDF0E080818F7783
:104CD000808319BCA7EDB0E08C918E7F8C9380818E
:104CE0008F7E80831092F70208950F931F93CF93C6
:104CF000DF930E94C9260E94D126C8EDD0E08881AA
:104D00008F77888388818068888388818F7D888376
:104D100019BC1092F8021092F4021092F60210924E
:104D2000F50200EE10E0F80180818B7F808388819E
:104D30008160888342E060E080E00E94D725E1EE58
:104D4000F0E080818E7F8083E2EEF0E08081816000
:104D50008083808188608083F80180818E7F80835A
:104D6000888180618883DF91CF911F910F91089591
:104D7000E8EDF0E080818F7E8083E7EDF0E08081D8
:104D80008160808384E082BF81E08093F7020C948D
:104D90007526E8EDF0E080818E7F80831092E2003E
:104DA00008951092DA001092E10008951F920F9278
:104DB0000FB60F9211242F933F934F935F936F93EE
:104DC0007F938F939F93AF93BF93EF93FF938091C4
:104DD000E10082FF0BC08091E20082FF07C080915A
:104DE000E1008B7F8093E1000E9440298091DA00EE
:104DF00080FF19C08091D80080FF15C08091DA0033
:104E00008E7F8093DA008091D90080FF96C080E188
:104E100089BD82E189BD09B400FEFDCF81E08093A8
:104E2000F8020E9442238091E10080FF19C0809126
:104E3000E20080FF15C08091E2008E7F8093E20047
:104E40008091E20080618093E2008091D8008062CE
:104E50008093D80019BC85E08093F8020E94542307
:104E60008091E10084FF2BC08091E20084FF27C085
:104E700080E189BD82E189BD89B5982F917080FF5D
:104E8000FBCF8091D8008F7D8093D8008091E10086
:104E90008F7E8093E1008091E2008F7E8093E2001C
:104EA0008091E20081608093E2008091F402882387
:104EB00009F449C084E08093F8020E945523809150
:104EC000E10083FF29C08091E20083FF25C080912B
:104ED000E100877F8093E10082E08093F8021092E6
:104EE000F4028091E1008E7F8093E1008091E200E6
:104EF0008E7F8093E2008091E20080618093E200E7
:104F000042E060E080E00E94D7258091F000886058
:104F10008093F0000E945323FF91EF91BF91AF91D6
:104F20009F918F917F916F915F914F913F912F91C1
:104F30000F900FBE0F901F90189519BC1092F80299
:104F40000E94502370CF8091E30087FD93E09093FF
:104F5000F802B3CF1F920F920FB60F9211242F9326
:104F60003F934F935F936F937F938F939F93AF93F1
:104F7000BF93CF93DF93EF93FF93D091E900DF705E
:104F80008091EC00C82FC17080FDC0E81092E9004C
:104F90008091F000877F8093F00078940E94EE2744
:104FA0001092E9008091F00088608093F000CD2B92
:104FB000CF70C093E900FF91EF91DF91CF91BF9146
:104FC000AF919F918F917F916F915F914F913F91A1
:104FD0002F910F900FBE0F901F9018951F93CF9396
:104FE000DF93CDB7DEB7AA970FB6F894DEBF0FBE3A
:104FF000CDBF89EF92E02091F100FC012193CF0118
:10500000F3E081309F07B9F70E9461238091E800A7
:1050100083FF1EC18091F9029091FA029A3008F044
:1050200017C1E92FF0E0E550F54D0C94C029803808
:1050300099F0823809F00CC18091FD028F708730A1
:1050400008F006C18093E9008091EB0085FB88277A
:1050500080F91092E90006C08091F5029091F60265
:10506000911182609091E800977F9093E80080937F
:10507000F1001092F1008091E8008E77E5C088235E
:1050800009F4D3C0823009F0E3C08091FB028111A2
:10509000D6C08091FD028F702FEF280F263008F0C8
:1050A000D7C08093E9002091EB0020FFC8C0933067
:1050B00031F48091EB0080628093EB00C0C090914E
:1050C000EB0090619093EB0021E030E001C0220FF3
:1050D0008A95EAF72093EA001092EA008091EB00AB
:1050E0008860EACF8111B4C01091FB021F778091D4
:1050F000E3008078812B8093E3008091E800877F34
:105100008093E8000E940B268091E80080FFFCCF8E
:105110008091E30080688093E30082E0111183E0D6
:105120008093F80295C08058823008F091C0809139
:10513000FB029091FC028C3D23E09207A1F583E0F5
:105140008A838AE289834FB7F894DE01139620E0C0
:105150003EE051E2E32FF0E050935700E49120FF4E
:1051600003C0E295EF703F5FEF708E2F90E0EA3062
:10517000C0F0C7968D939D932F5F243159F74FBF91
:105180008091E800877F8093E8006AE270E0CE01BA
:1051900001960E941A258091E8008B778093E800A1
:1051A00057C0C096E7CF6091FD027091FE02AE013C
:1051B0004F5F5F4F0E945B24BC01892B09F448C0FC
:1051C0009091E800977F9093E80089819A810E94EE
:1051D0007825E1CF8038E1F58091E800877F8093E2
:1051E000E8008091F4028093F10045CF811130C036
:1051F0009091FB02923060F58091E800877F809368
:10520000E8009093F4020E940B268091F402882318
:1052100011F084E005C08091E30087FDFACF81E0C2
:105220008093F8020E94572313C08091FB028130C3
:1052300079F481E0933009F080E08093F6021092D7
:10524000E9008091E800877F8093E8000E940B26A8
:105250008091E80083FF0AC08091E800877F8093F7
:10526000E8008091EB0080628093EB00AA960FB675
:10527000F894DEBF0FBECDBFDF91CF911F9108958F
:105280000895CF938091F8028823A1F0C091E9009E
:10529000CF709091EC00892F817090FD80E8C82B31
:1052A0001092E9008091E80083FD0E94EE27CF7004
:1052B000C093E900CF910895991B79E004C0991F2C
:1052C000961708F0961B881F7A95C9F78095089560
:1052D00087FB082E062687FD819567FD61950E9454
:1052E0005C290EF4919507FC81950895AA1BBB1BC0
:1052F00051E107C0AA1FBB1FA617B70710F0A61BD6
:10530000B70B881F991F5A95A9F780959095BC01F6
:10531000CD01089597FB072E16F4009407D077FD72
:1053200009D00E94762907FC05D03EF4909581951E
:105330009F4F0895709561957F4F0895A1E21A2EB1
:10534000AA1BBB1BFD010DC0AA1FBB1FEE1FFF1F29
:10535000A217B307E407F50720F0A21BB30BE40B79
:10536000F50B661F771F881F991F1A9469F76095C0
:105370007095809590959B01AC01BD01CF0108957A
:10538000EE0FFF1F0590F491E02D09940E94CE29A5
:10539000332312F48A1B9B0B0C94DF29A29FB001CC
:1053A000B39FC001A39F700D811D1124911DB29F59
:1053B000700D811D1124911D08950E94CE29B7FF03
:1053C0000895821B930B08950E94CE29A59F900DEE
:1053D000B49F900DA49F800D911D11240895B7FFD7
:1053E0000C94E4290E94E429821B930B08958F9268
:1053F0009F92AF92BF92CF92DF92EF92FF92CF93A4
:10540000DF93EC01688179818A819B816115710547
:105410008105910521F464E279ED8BE597E02DE1BA
:1054200033EF41E050E00E94A82A49015A019B0154
:10543000AC01A7EAB1E40E94E4296B017C01ACEE67
:10544000B4EFA50194010E94F229DC01CB018C0D7F
:105450009D1DAE1DBF1DB7FF03C00197A109B04838
:1054600088839983AA83BB839F77DF91CF91FF9035
:10547000EF90DF90CF90BF90AF909F908F90089566
:105480000E94F729089580E091E00E94F72908958D
:10549000B0E0A0E08093000190930101A09302018D
:1054A000B09303010895FC014150504030F0019049
:1054B0000616D1F73197CF010895882799270895C7
:1054C000F999FECF92BD81BDF89A992780B50895CC
:1054D000A6E1B0E044E050E00C949A2AA8E1B0E0E4
:1054E00042E050E00C949A2A262FF999FECF92BD03
:1054F00081BDF89A019700B4021639F01FBA20BD99
:105500000FB6F894FA9AF99A0FBE08950396272FCA
:105510000E94752A0E94742A252F0E94752A242F22
:105520000C94752A0196272F0E94752A0C94742AD0
:10553000DC01CB01FC01F999FECF06C0F2BDE1BD53
:10554000F89A319600B40D9241505040B8F7089542
:10555000052E97FB1EF400940E94BF2A57FD07D02A
:105560000E949E2907FC03D04EF40C94BF2A50954C
:105570004095309521953F4F4F4F5F4F089590953F
:105580008095709561957F4F8F4F9F4F0895F89448
:10559000FFCF870E8F0E960E9B0EA00EA50EAA0EA5
:1055A000AF0EB40EB90EBE0EC30EC70ECC0ECF0E8C
:1055B000D20ED50ED80EDA0EDD0EE213E2133A1437
:1055C0003A148C14A8140F140F14B3143F154E156D
:1055D0004E15AA150F140F14B315281628163116D8
:1055E000311633163116311631162816281638168C
:1055F00031163116381617283F2828293F28282920
:0A560000722893282829EA28F628CA
:10560A0001000000010102000700070701191A1B27
:10561A001C1D1E1F2021226E022808643C0710A3AD
:10562A00220223E122DD22D92201E200E900EA0076
:10563A00B500B600B700CD008301CC008A01920103
:10564A0094012102230224022502260227022A02A9
:10565A00B300B4006F007000818283313332363573
:10566A0034C69766949091F4F5F6F70001020202A7
:10567A00020606060909090909090F0F0F0F0F0F7C
:10568A001515151819191919191919191919232478
:10569A00252525252525E200E900EA00B500B60002
:1056AA00B700CD008301CC008A0192019401210246
:1056BA00230224022502260227022A02B300B4008A
:0856CA006F0070008182830073
:00000001FF
